{
  "contracts/NFT.sol": {
    "NFT": {
      "abi": [
        {
          "inputs": [],
          "stateMutability": "nonpayable",
          "type": "constructor"
        },
        {
          "inputs": [
            {
              "internalType": "address",
              "name": "sender",
              "type": "address"
            },
            {
              "internalType": "uint256",
              "name": "tokenId",
              "type": "uint256"
            },
            {
              "internalType": "address",
              "name": "owner",
              "type": "address"
            }
          ],
          "name": "ERC721IncorrectOwner",
          "type": "error"
        },
        {
          "inputs": [
            {
              "internalType": "address",
              "name": "operator",
              "type": "address"
            },
            {
              "internalType": "uint256",
              "name": "tokenId",
              "type": "uint256"
            }
          ],
          "name": "ERC721InsufficientApproval",
          "type": "error"
        },
        {
          "inputs": [
            {
              "internalType": "address",
              "name": "approver",
              "type": "address"
            }
          ],
          "name": "ERC721InvalidApprover",
          "type": "error"
        },
        {
          "inputs": [
            {
              "internalType": "address",
              "name": "operator",
              "type": "address"
            }
          ],
          "name": "ERC721InvalidOperator",
          "type": "error"
        },
        {
          "inputs": [
            {
              "internalType": "address",
              "name": "owner",
              "type": "address"
            }
          ],
          "name": "ERC721InvalidOwner",
          "type": "error"
        },
        {
          "inputs": [
            {
              "internalType": "address",
              "name": "receiver",
              "type": "address"
            }
          ],
          "name": "ERC721InvalidReceiver",
          "type": "error"
        },
        {
          "inputs": [
            {
              "internalType": "address",
              "name": "sender",
              "type": "address"
            }
          ],
          "name": "ERC721InvalidSender",
          "type": "error"
        },
        {
          "inputs": [
            {
              "internalType": "uint256",
              "name": "tokenId",
              "type": "uint256"
            }
          ],
          "name": "ERC721NonexistentToken",
          "type": "error"
        },
        {
          "anonymous": false,
          "inputs": [
            {
              "indexed": true,
              "internalType": "address",
              "name": "owner",
              "type": "address"
            },
            {
              "indexed": true,
              "internalType": "address",
              "name": "approved",
              "type": "address"
            },
            {
              "indexed": true,
              "internalType": "uint256",
              "name": "tokenId",
              "type": "uint256"
            }
          ],
          "name": "Approval",
          "type": "event"
        },
        {
          "anonymous": false,
          "inputs": [
            {
              "indexed": true,
              "internalType": "address",
              "name": "owner",
              "type": "address"
            },
            {
              "indexed": true,
              "internalType": "address",
              "name": "operator",
              "type": "address"
            },
            {
              "indexed": false,
              "internalType": "bool",
              "name": "approved",
              "type": "bool"
            }
          ],
          "name": "ApprovalForAll",
          "type": "event"
        },
        {
          "anonymous": false,
          "inputs": [
            {
              "indexed": false,
              "internalType": "uint256",
              "name": "_fromTokenId",
              "type": "uint256"
            },
            {
              "indexed": false,
              "internalType": "uint256",
              "name": "_toTokenId",
              "type": "uint256"
            }
          ],
          "name": "BatchMetadataUpdate",
          "type": "event"
        },
        {
          "anonymous": false,
          "inputs": [
            {
              "indexed": false,
              "internalType": "uint256",
              "name": "_tokenId",
              "type": "uint256"
            }
          ],
          "name": "MetadataUpdate",
          "type": "event"
        },
        {
          "anonymous": false,
          "inputs": [
            {
              "indexed": true,
              "internalType": "address",
              "name": "from",
              "type": "address"
            },
            {
              "indexed": true,
              "internalType": "address",
              "name": "to",
              "type": "address"
            },
            {
              "indexed": true,
              "internalType": "uint256",
              "name": "tokenId",
              "type": "uint256"
            }
          ],
          "name": "Transfer",
          "type": "event"
        },
        {
          "inputs": [
            {
              "internalType": "address",
              "name": "to",
              "type": "address"
            },
            {
              "internalType": "uint256",
              "name": "tokenId",
              "type": "uint256"
            }
          ],
          "name": "approve",
          "outputs": [],
          "stateMutability": "nonpayable",
          "type": "function"
        },
        {
          "inputs": [
            {
              "internalType": "address",
              "name": "owner",
              "type": "address"
            }
          ],
          "name": "balanceOf",
          "outputs": [
            {
              "internalType": "uint256",
              "name": "",
              "type": "uint256"
            }
          ],
          "stateMutability": "view",
          "type": "function"
        },
        {
          "inputs": [
            {
              "internalType": "uint256",
              "name": "tokenId",
              "type": "uint256"
            }
          ],
          "name": "getApproved",
          "outputs": [
            {
              "internalType": "address",
              "name": "",
              "type": "address"
            }
          ],
          "stateMutability": "view",
          "type": "function"
        },
        {
          "inputs": [
            {
              "internalType": "address",
              "name": "owner",
              "type": "address"
            },
            {
              "internalType": "address",
              "name": "operator",
              "type": "address"
            }
          ],
          "name": "isApprovedForAll",
          "outputs": [
            {
              "internalType": "bool",
              "name": "",
              "type": "bool"
            }
          ],
          "stateMutability": "view",
          "type": "function"
        },
        {
          "inputs": [],
          "name": "mintNFT",
          "outputs": [
            {
              "internalType": "uint256",
              "name": "",
              "type": "uint256"
            }
          ],
          "stateMutability": "nonpayable",
          "type": "function"
        },
        {
          "inputs": [],
          "name": "name",
          "outputs": [
            {
              "internalType": "string",
              "name": "",
              "type": "string"
            }
          ],
          "stateMutability": "view",
          "type": "function"
        },
        {
          "inputs": [
            {
              "internalType": "uint256",
              "name": "tokenId",
              "type": "uint256"
            }
          ],
          "name": "ownerOf",
          "outputs": [
            {
              "internalType": "address",
              "name": "",
              "type": "address"
            }
          ],
          "stateMutability": "view",
          "type": "function"
        },
        {
          "inputs": [
            {
              "internalType": "address",
              "name": "from",
              "type": "address"
            },
            {
              "internalType": "address",
              "name": "to",
              "type": "address"
            },
            {
              "internalType": "uint256",
              "name": "tokenId",
              "type": "uint256"
            }
          ],
          "name": "safeTransferFrom",
          "outputs": [],
          "stateMutability": "nonpayable",
          "type": "function"
        },
        {
          "inputs": [
            {
              "internalType": "address",
              "name": "from",
              "type": "address"
            },
            {
              "internalType": "address",
              "name": "to",
              "type": "address"
            },
            {
              "internalType": "uint256",
              "name": "tokenId",
              "type": "uint256"
            },
            {
              "internalType": "bytes",
              "name": "data",
              "type": "bytes"
            }
          ],
          "name": "safeTransferFrom",
          "outputs": [],
          "stateMutability": "nonpayable",
          "type": "function"
        },
        {
          "inputs": [
            {
              "internalType": "address",
              "name": "operator",
              "type": "address"
            },
            {
              "internalType": "bool",
              "name": "approved",
              "type": "bool"
            }
          ],
          "name": "setApprovalForAll",
          "outputs": [],
          "stateMutability": "nonpayable",
          "type": "function"
        },
        {
          "inputs": [
            {
              "internalType": "bytes4",
              "name": "interfaceId",
              "type": "bytes4"
            }
          ],
          "name": "supportsInterface",
          "outputs": [
            {
              "internalType": "bool",
              "name": "",
              "type": "bool"
            }
          ],
          "stateMutability": "view",
          "type": "function"
        },
        {
          "inputs": [],
          "name": "symbol",
          "outputs": [
            {
              "internalType": "string",
              "name": "",
              "type": "string"
            }
          ],
          "stateMutability": "view",
          "type": "function"
        },
        {
          "inputs": [
            {
              "internalType": "uint256",
              "name": "tokenId",
              "type": "uint256"
            }
          ],
          "name": "tokenURI",
          "outputs": [
            {
              "internalType": "string",
              "name": "",
              "type": "string"
            }
          ],
          "stateMutability": "view",
          "type": "function"
        },
        {
          "inputs": [
            {
              "internalType": "address",
              "name": "from",
              "type": "address"
            },
            {
              "internalType": "address",
              "name": "to",
              "type": "address"
            },
            {
              "internalType": "uint256",
              "name": "tokenId",
              "type": "uint256"
            }
          ],
          "name": "transferFrom",
          "outputs": [],
          "stateMutability": "nonpayable",
          "type": "function"
        }
      ],
      "evm": {
        "bytecode": {
          "linkReferences": {},
          "object": "60803462000315576001600160401b039060409080820183811182821017620002ff578252600e81526020926d2b34ba30b634b5a13aba32b934b760911b84830152825183810181811083821117620002ff5784526007815266564954414c494b60c81b85820152825190828211620002ff5760008054926001958685811c95168015620002f4575b89861014620002e0578190601f958681116200028d575b508990868311600114620002295784926200021d575b5050600019600383901b1c191690861b1781555b8151938411620002095784548581811c91168015620001fe575b88821014620001ea57838111620001a2575b50869284116001146200013c5783949596509262000130575b5050600019600383901b1c191690821b1790555b51610ee490816200031b8239f35b0151905038806200010e565b9190601f1984169685845280842093905b8882106200018a575050838596971062000170575b505050811b01905562000122565b015160001960f88460031b161c1916905538808062000162565b8087859682949686015181550195019301906200014d565b8582528782208480870160051c8201928a8810620001e0575b0160051c019086905b828110620001d4575050620000f5565b838155018690620001c4565b92508192620001bb565b634e487b7160e01b82526022600452602482fd5b90607f1690620000e3565b634e487b7160e01b81526041600452602490fd5b015190503880620000b5565b8480528a85208994509190601f198416865b8d8282106200027657505084116200025c575b505050811b018155620000c9565b015160001960f88460031b161c191690553880806200024e565b8385015186558c979095019493840193016200023b565b9091508380528984208680850160051c8201928c8610620002d6575b918a91869594930160051c01915b828110620002c75750506200009f565b8681558594508a9101620002b7565b92508192620002a9565b634e487b7160e01b83526022600452602483fd5b94607f169462000088565b634e487b7160e01b600052604160045260246000fd5b600080fdfe608060408181526004918236101561001657600080fd5b600092833560e01c91826301ffc9a7146109b05750816306fdde0314610908578163081812fc146108cc578163095ea7b3146107ef57816314f710fe146104e257816323b872dd146104ca57816342842e0e146104a15781636352211e1461047057816370a082311461041857816395d89b4114610335578163a22cb46514610293578163b88d4fde14610209578163c87b56dd1461010f575063e985e9c5146100bf57600080fd5b3461010b578060031936011261010b5760ff816020936100dd610a75565b6100e5610a90565b6001600160a01b0391821683526005875283832091168252855220549151911615158152f35b5080fd5b919050346102055760209182600319360112610201573561012f81610e73565b5083526006825280832092815180948290805461014b81610b4b565b918285526001918883821691826000146101da57505060011461019c575b50505061019893929161017d910386610b0d565b815161018881610adb565b5251928284938452830190610a35565b0390f35b8552868520879350859291905b8284106101c2575050508201018161017d610198610169565b8054848b0186015289955088949093019281016101a9565b60ff19168782015293151560051b8601909301935084925061017d91506101989050610169565b8380fd5b8280fd5b9190503461020557608036600319011261020557610225610a75565b61022d610a90565b846064359467ffffffffffffffff861161010b573660238701121561010b578501359461026561025c87610b2f565b95519586610b0d565b858552366024878301011161010b578561029096602460209301838801378501015260443591610d24565b80f35b919050346102055780600319360112610205576102ae610a75565b9060243591821515809303610331576001600160a01b031692831561031c5750338452600560205280842083855260205280842060ff1981541660ff8416179055519081527f17307eab39ab6107e8899845ad3d59bd9653f200f220920489ca2b5937696c3160203392a380f35b836024925191630b61174360e31b8352820152fd5b8480fd5b50503461010b578160031936011261010b5780519082600180549161035983610b4b565b808652928281169081156103f05750600114610394575b50505061038282610198940383610b0d565b51918291602083526020830190610a35565b94508085527fb10e2d527612073b26eecdfd717e6a320cf44b4afac2b0732d9fcbe2b7fa0cf65b8286106103d8575050506103828260206101989582010194610370565b805460208787018101919091529095019481016103bb565b61019897508693506020925061038294915060ff191682840152151560051b82010194610370565b82843461046d57602036600319011261046d576001600160a01b0361043b610a75565b169283156104585750806020938392526003845220549051908152f35b91516322718ad960e21b815291820152602490fd5b80fd5b82843461046d57602036600319011261046d575061049060209235610e73565b90516001600160a01b039091168152f35b50503461010b57610290906104b536610aa6565b919251926104c284610adb565b858452610d24565b833461046d576102906104dc36610aa6565b91610b85565b83833461010b578160031936011261010b5760075460001993908481146107dc576001809101938460075533156107c6578481526020956002875260018060a01b038583205416868115159182610795575b3380865260038b5288862080548801905582865260028b5288862080546001600160a01b03191682179055907fddf252ad1be2c89b69c2b068fc378daa952ba7f163c4a11628f55a4df523b3ef8680a461077e57845167ffffffffffffffff929060a081018481118282101761076b578752606681527f68747470733a2f2f617175616d6172696e652d726172652d66697265666c792d898201527f3735362e6d7970696e6174612e636c6f75642f697066732f516d58794d357a76878201527f7a463647686a637948754c6f54536d7376686a78455778525275595576376a4460608201526528b7bd311ab160d11b60808201528782526006895286822095815194851161075857506106488654610b4b565b601f8111610712575b508891601f85116001146106b257918495918593956106a7575b50501b9260031b1c19161790555b7ff8e1a15aba9398e019f0b49df1a4fde98ee17ae345cb5f6b5e2c27f5033e8ce7838251848152a151908152f35b01519350898061066b565b92919084601f1981168886528b8620955b8c898383106106fb57505050106106e3575b50505050811b019055610679565b01519060f88460031b161c19169055868080806106d5565b8686015189559097019694850194889350016106c3565b868352898320601f860160051c8101918b871061074e575b601f0160051c019086905b828110610743575050610651565b848155018690610735565b909150819061072a565b634e487b7160e01b835260419052602482fd5b634e487b7160e01b835260418752602483fd5b84516339e3563760e11b8152808501839052602490fd5b600082815260046020526040902080546001600160a01b031916905580855260038a52878520848154019055610534565b90506024925191633250574960e11b8352820152fd5b634e487b7160e01b845260118252602484fd5b9190503461020557806003193601126102055761080a610a75565b9160243561081781610e73565b331515806108b9575b80610890575b61087a576001600160a01b039485169482918691167f8c5be1e5ebec7d5bd14f71427d1e84f3dd0314c0f7b2291e5b200ac8c7c3b9258880a48452602052822080546001600160a01b031916909117905580f35b835163a9fbf51f60e01b81523381850152602490fd5b506001600160a01b03811686526005602090815284872033885290528386205460ff1615610826565b506001600160a01b038116331415610820565b905034610205576020366003190112610205579182602093356108ee81610e73565b50825283528190205490516001600160a01b039091168152f35b50503461010b578160031936011261010b5780519082805461092981610b4b565b808552916001918083169081156103f057506001146109545750505061038282610198940383610b0d565b80809650527f290decd9548b62a8d60345a988386fc84ba6bc95484008f6362f93160ef3e5635b828610610998575050506103828260206101989582010194610370565b8054602087870181019190915290950194810161097b565b849134610205576020366003190112610205573563ffffffff60e01b81168091036102055760209250632483248360e11b81149081156109f2575b5015158152f35b6380ac58cd60e01b811491508115610a24575b8115610a13575b50836109eb565b6301ffc9a760e01b14905083610a0c565b635b5e139f60e01b81149150610a05565b919082519283825260005b848110610a61575050826000602080949584010152601f8019910116010190565b602081830181015184830182015201610a40565b600435906001600160a01b0382168203610a8b57565b600080fd5b602435906001600160a01b0382168203610a8b57565b6060906003190112610a8b576001600160a01b03906004358281168103610a8b57916024359081168103610a8b579060443590565b6020810190811067ffffffffffffffff821117610af757604052565b634e487b7160e01b600052604160045260246000fd5b90601f8019910116810190811067ffffffffffffffff821117610af757604052565b67ffffffffffffffff8111610af757601f01601f191660200190565b90600182811c92168015610b7b575b6020831014610b6557565b634e487b7160e01b600052602260045260246000fd5b91607f1691610b5a565b6001600160a01b039182169290918315610d0b57600092828452826020956002875260409684888820541696879133151580610c75575b509060027fddf252ad1be2c89b69c2b068fc378daa952ba7f163c4a11628f55a4df523b3ef9284610c42575b858352600381528b8320805460010190558683525289812080546001600160a01b0319168517905580a41692838303610c215750505050565b6064945051926364283d7b60e01b8452600484015260248301526044820152fd5b600087815260046020526040902080546001600160a01b0319169055848352600381528b83208054600019019055610be8565b91939450915080610cca575b15610c9157859291879138610bbc565b878688610cae576024915190637e27328960e01b82526004820152fd5b604491519063177e802f60e01b82523360048301526024820152fd5b503387148015610cef575b80610c815750858252600481523385898420541614610c81565b5086825260058152878220338352815260ff8883205416610cd5565b604051633250574960e11b815260006004820152602490fd5b610d2f838383610b85565b813b610d3c575b50505050565b604051630a85bd0160e11b8082523360048301526001600160a01b03928316602483015260448201949094526080606482015260209592909116939092908390610d8a906084830190610a35565b039285816000958187895af1849181610e33575b50610dfe575050503d600014610df6573d610db881610b2f565b90610dc66040519283610b0d565b81528091843d92013e5b80519283610df157604051633250574960e11b815260048101849052602490fd5b019050fd5b506060610dd0565b919450915063ffffffff60e01b1603610e1b575038808080610d36565b60249060405190633250574960e11b82526004820152fd5b9091508681813d8311610e6c575b610e4b8183610b0d565b8101031261033157516001600160e01b031981168103610331579038610d9e565b503d610e41565b6000818152600260205260409020546001600160a01b0316908115610e96575090565b60249060405190637e27328960e01b82526004820152fdfea2646970667358221220ff21380ee7c5dade7d48787b9e22feae0c3e281886b9c50292107c61d8c561a164736f6c63430008140033",
          "opcodes": "PUSH1 0x80 CALLVALUE PUSH3 0x315 JUMPI PUSH1 0x1 PUSH1 0x1 PUSH1 0x40 SHL SUB SWAP1 PUSH1 0x40 SWAP1 DUP1 DUP3 ADD DUP4 DUP2 GT DUP3 DUP3 LT OR PUSH3 0x2FF JUMPI DUP3 MSTORE PUSH1 0xE DUP2 MSTORE PUSH1 0x20 SWAP3 PUSH14 0x2B34BA30B634B5A13ABA32B934B7 PUSH1 0x91 SHL DUP5 DUP4 ADD MSTORE DUP3 MLOAD DUP4 DUP2 ADD DUP2 DUP2 LT DUP4 DUP3 GT OR PUSH3 0x2FF JUMPI DUP5 MSTORE PUSH1 0x7 DUP2 MSTORE PUSH7 0x564954414C494B PUSH1 0xC8 SHL DUP6 DUP3 ADD MSTORE DUP3 MLOAD SWAP1 DUP3 DUP3 GT PUSH3 0x2FF JUMPI PUSH1 0x0 DUP1 SLOAD SWAP3 PUSH1 0x1 SWAP6 DUP7 DUP6 DUP2 SHR SWAP6 AND DUP1 ISZERO PUSH3 0x2F4 JUMPI JUMPDEST DUP10 DUP7 LT EQ PUSH3 0x2E0 JUMPI DUP2 SWAP1 PUSH1 0x1F SWAP6 DUP7 DUP2 GT PUSH3 0x28D JUMPI JUMPDEST POP DUP10 SWAP1 DUP7 DUP4 GT PUSH1 0x1 EQ PUSH3 0x229 JUMPI DUP5 SWAP3 PUSH3 0x21D JUMPI JUMPDEST POP POP PUSH1 0x0 NOT PUSH1 0x3 DUP4 SWAP1 SHL SHR NOT AND SWAP1 DUP7 SHL OR DUP2 SSTORE JUMPDEST DUP2 MLOAD SWAP4 DUP5 GT PUSH3 0x209 JUMPI DUP5 SLOAD DUP6 DUP2 DUP2 SHR SWAP2 AND DUP1 ISZERO PUSH3 0x1FE JUMPI JUMPDEST DUP9 DUP3 LT EQ PUSH3 0x1EA JUMPI DUP4 DUP2 GT PUSH3 0x1A2 JUMPI JUMPDEST POP DUP7 SWAP3 DUP5 GT PUSH1 0x1 EQ PUSH3 0x13C JUMPI DUP4 SWAP5 SWAP6 SWAP7 POP SWAP3 PUSH3 0x130 JUMPI JUMPDEST POP POP PUSH1 0x0 NOT PUSH1 0x3 DUP4 SWAP1 SHL SHR NOT AND SWAP1 DUP3 SHL OR SWAP1 SSTORE JUMPDEST MLOAD PUSH2 0xEE4 SWAP1 DUP2 PUSH3 0x31B DUP3 CODECOPY RETURN JUMPDEST ADD MLOAD SWAP1 POP CODESIZE DUP1 PUSH3 0x10E JUMP JUMPDEST SWAP2 SWAP1 PUSH1 0x1F NOT DUP5 AND SWAP7 DUP6 DUP5 MSTORE DUP1 DUP5 KECCAK256 SWAP4 SWAP1 JUMPDEST DUP9 DUP3 LT PUSH3 0x18A JUMPI POP POP DUP4 DUP6 SWAP7 SWAP8 LT PUSH3 0x170 JUMPI JUMPDEST POP POP POP DUP2 SHL ADD SWAP1 SSTORE PUSH3 0x122 JUMP JUMPDEST ADD MLOAD PUSH1 0x0 NOT PUSH1 0xF8 DUP5 PUSH1 0x3 SHL AND SHR NOT AND SWAP1 SSTORE CODESIZE DUP1 DUP1 PUSH3 0x162 JUMP JUMPDEST DUP1 DUP8 DUP6 SWAP7 DUP3 SWAP5 SWAP7 DUP7 ADD MLOAD DUP2 SSTORE ADD SWAP6 ADD SWAP4 ADD SWAP1 PUSH3 0x14D JUMP JUMPDEST DUP6 DUP3 MSTORE DUP8 DUP3 KECCAK256 DUP5 DUP1 DUP8 ADD PUSH1 0x5 SHR DUP3 ADD SWAP3 DUP11 DUP9 LT PUSH3 0x1E0 JUMPI JUMPDEST ADD PUSH1 0x5 SHR ADD SWAP1 DUP7 SWAP1 JUMPDEST DUP3 DUP2 LT PUSH3 0x1D4 JUMPI POP POP PUSH3 0xF5 JUMP JUMPDEST DUP4 DUP2 SSTORE ADD DUP7 SWAP1 PUSH3 0x1C4 JUMP JUMPDEST SWAP3 POP DUP2 SWAP3 PUSH3 0x1BB JUMP JUMPDEST PUSH4 0x4E487B71 PUSH1 0xE0 SHL DUP3 MSTORE PUSH1 0x22 PUSH1 0x4 MSTORE PUSH1 0x24 DUP3 REVERT JUMPDEST SWAP1 PUSH1 0x7F AND SWAP1 PUSH3 0xE3 JUMP JUMPDEST PUSH4 0x4E487B71 PUSH1 0xE0 SHL DUP2 MSTORE PUSH1 0x41 PUSH1 0x4 MSTORE PUSH1 0x24 SWAP1 REVERT JUMPDEST ADD MLOAD SWAP1 POP CODESIZE DUP1 PUSH3 0xB5 JUMP JUMPDEST DUP5 DUP1 MSTORE DUP11 DUP6 KECCAK256 DUP10 SWAP5 POP SWAP2 SWAP1 PUSH1 0x1F NOT DUP5 AND DUP7 JUMPDEST DUP14 DUP3 DUP3 LT PUSH3 0x276 JUMPI POP POP DUP5 GT PUSH3 0x25C JUMPI JUMPDEST POP POP POP DUP2 SHL ADD DUP2 SSTORE PUSH3 0xC9 JUMP JUMPDEST ADD MLOAD PUSH1 0x0 NOT PUSH1 0xF8 DUP5 PUSH1 0x3 SHL AND SHR NOT AND SWAP1 SSTORE CODESIZE DUP1 DUP1 PUSH3 0x24E JUMP JUMPDEST DUP4 DUP6 ADD MLOAD DUP7 SSTORE DUP13 SWAP8 SWAP1 SWAP6 ADD SWAP5 SWAP4 DUP5 ADD SWAP4 ADD PUSH3 0x23B JUMP JUMPDEST SWAP1 SWAP2 POP DUP4 DUP1 MSTORE DUP10 DUP5 KECCAK256 DUP7 DUP1 DUP6 ADD PUSH1 0x5 SHR DUP3 ADD SWAP3 DUP13 DUP7 LT PUSH3 0x2D6 JUMPI JUMPDEST SWAP2 DUP11 SWAP2 DUP7 SWAP6 SWAP5 SWAP4 ADD PUSH1 0x5 SHR ADD SWAP2 JUMPDEST DUP3 DUP2 LT PUSH3 0x2C7 JUMPI POP POP PUSH3 0x9F JUMP JUMPDEST DUP7 DUP2 SSTORE DUP6 SWAP5 POP DUP11 SWAP2 ADD PUSH3 0x2B7 JUMP JUMPDEST SWAP3 POP DUP2 SWAP3 PUSH3 0x2A9 JUMP JUMPDEST PUSH4 0x4E487B71 PUSH1 0xE0 SHL DUP4 MSTORE PUSH1 0x22 PUSH1 0x4 MSTORE PUSH1 0x24 DUP4 REVERT JUMPDEST SWAP5 PUSH1 0x7F AND SWAP5 PUSH3 0x88 JUMP JUMPDEST PUSH4 0x4E487B71 PUSH1 0xE0 SHL PUSH1 0x0 MSTORE PUSH1 0x41 PUSH1 0x4 MSTORE PUSH1 0x24 PUSH1 0x0 REVERT JUMPDEST PUSH1 0x0 DUP1 REVERT INVALID PUSH1 0x80 PUSH1 0x40 DUP2 DUP2 MSTORE PUSH1 0x4 SWAP2 DUP3 CALLDATASIZE LT ISZERO PUSH2 0x16 JUMPI PUSH1 0x0 DUP1 REVERT JUMPDEST PUSH1 0x0 SWAP3 DUP4 CALLDATALOAD PUSH1 0xE0 SHR SWAP2 DUP3 PUSH4 0x1FFC9A7 EQ PUSH2 0x9B0 JUMPI POP DUP2 PUSH4 0x6FDDE03 EQ PUSH2 0x908 JUMPI DUP2 PUSH4 0x81812FC EQ PUSH2 0x8CC JUMPI DUP2 PUSH4 0x95EA7B3 EQ PUSH2 0x7EF JUMPI DUP2 PUSH4 0x14F710FE EQ PUSH2 0x4E2 JUMPI DUP2 PUSH4 0x23B872DD EQ PUSH2 0x4CA JUMPI DUP2 PUSH4 0x42842E0E EQ PUSH2 0x4A1 JUMPI DUP2 PUSH4 0x6352211E EQ PUSH2 0x470 JUMPI DUP2 PUSH4 0x70A08231 EQ PUSH2 0x418 JUMPI DUP2 PUSH4 0x95D89B41 EQ PUSH2 0x335 JUMPI DUP2 PUSH4 0xA22CB465 EQ PUSH2 0x293 JUMPI DUP2 PUSH4 0xB88D4FDE EQ PUSH2 0x209 JUMPI DUP2 PUSH4 0xC87B56DD EQ PUSH2 0x10F JUMPI POP PUSH4 0xE985E9C5 EQ PUSH2 0xBF JUMPI PUSH1 0x0 DUP1 REVERT JUMPDEST CALLVALUE PUSH2 0x10B JUMPI DUP1 PUSH1 0x3 NOT CALLDATASIZE ADD SLT PUSH2 0x10B JUMPI PUSH1 0xFF DUP2 PUSH1 0x20 SWAP4 PUSH2 0xDD PUSH2 0xA75 JUMP JUMPDEST PUSH2 0xE5 PUSH2 0xA90 JUMP JUMPDEST PUSH1 0x1 PUSH1 0x1 PUSH1 0xA0 SHL SUB SWAP2 DUP3 AND DUP4 MSTORE PUSH1 0x5 DUP8 MSTORE DUP4 DUP4 KECCAK256 SWAP2 AND DUP3 MSTORE DUP6 MSTORE KECCAK256 SLOAD SWAP2 MLOAD SWAP2 AND ISZERO ISZERO DUP2 MSTORE RETURN JUMPDEST POP DUP1 REVERT JUMPDEST SWAP2 SWAP1 POP CALLVALUE PUSH2 0x205 JUMPI PUSH1 0x20 SWAP2 DUP3 PUSH1 0x3 NOT CALLDATASIZE ADD SLT PUSH2 0x201 JUMPI CALLDATALOAD PUSH2 0x12F DUP2 PUSH2 0xE73 JUMP JUMPDEST POP DUP4 MSTORE PUSH1 0x6 DUP3 MSTORE DUP1 DUP4 KECCAK256 SWAP3 DUP2 MLOAD DUP1 SWAP5 DUP3 SWAP1 DUP1 SLOAD PUSH2 0x14B DUP2 PUSH2 0xB4B JUMP JUMPDEST SWAP2 DUP3 DUP6 MSTORE PUSH1 0x1 SWAP2 DUP9 DUP4 DUP3 AND SWAP2 DUP3 PUSH1 0x0 EQ PUSH2 0x1DA JUMPI POP POP PUSH1 0x1 EQ PUSH2 0x19C JUMPI JUMPDEST POP POP POP PUSH2 0x198 SWAP4 SWAP3 SWAP2 PUSH2 0x17D SWAP2 SUB DUP7 PUSH2 0xB0D JUMP JUMPDEST DUP2 MLOAD PUSH2 0x188 DUP2 PUSH2 0xADB JUMP JUMPDEST MSTORE MLOAD SWAP3 DUP3 DUP5 SWAP4 DUP5 MSTORE DUP4 ADD SWAP1 PUSH2 0xA35 JUMP JUMPDEST SUB SWAP1 RETURN JUMPDEST DUP6 MSTORE DUP7 DUP6 KECCAK256 DUP8 SWAP4 POP DUP6 SWAP3 SWAP2 SWAP1 JUMPDEST DUP3 DUP5 LT PUSH2 0x1C2 JUMPI POP POP POP DUP3 ADD ADD DUP2 PUSH2 0x17D PUSH2 0x198 PUSH2 0x169 JUMP JUMPDEST DUP1 SLOAD DUP5 DUP12 ADD DUP7 ADD MSTORE DUP10 SWAP6 POP DUP9 SWAP5 SWAP1 SWAP4 ADD SWAP3 DUP2 ADD PUSH2 0x1A9 JUMP JUMPDEST PUSH1 0xFF NOT AND DUP8 DUP3 ADD MSTORE SWAP4 ISZERO ISZERO PUSH1 0x5 SHL DUP7 ADD SWAP1 SWAP4 ADD SWAP4 POP DUP5 SWAP3 POP PUSH2 0x17D SWAP2 POP PUSH2 0x198 SWAP1 POP PUSH2 0x169 JUMP JUMPDEST DUP4 DUP1 REVERT JUMPDEST DUP3 DUP1 REVERT JUMPDEST SWAP2 SWAP1 POP CALLVALUE PUSH2 0x205 JUMPI PUSH1 0x80 CALLDATASIZE PUSH1 0x3 NOT ADD SLT PUSH2 0x205 JUMPI PUSH2 0x225 PUSH2 0xA75 JUMP JUMPDEST PUSH2 0x22D PUSH2 0xA90 JUMP JUMPDEST DUP5 PUSH1 0x64 CALLDATALOAD SWAP5 PUSH8 0xFFFFFFFFFFFFFFFF DUP7 GT PUSH2 0x10B JUMPI CALLDATASIZE PUSH1 0x23 DUP8 ADD SLT ISZERO PUSH2 0x10B JUMPI DUP6 ADD CALLDATALOAD SWAP5 PUSH2 0x265 PUSH2 0x25C DUP8 PUSH2 0xB2F JUMP JUMPDEST SWAP6 MLOAD SWAP6 DUP7 PUSH2 0xB0D JUMP JUMPDEST DUP6 DUP6 MSTORE CALLDATASIZE PUSH1 0x24 DUP8 DUP4 ADD ADD GT PUSH2 0x10B JUMPI DUP6 PUSH2 0x290 SWAP7 PUSH1 0x24 PUSH1 0x20 SWAP4 ADD DUP4 DUP9 ADD CALLDATACOPY DUP6 ADD ADD MSTORE PUSH1 0x44 CALLDATALOAD SWAP2 PUSH2 0xD24 JUMP JUMPDEST DUP1 RETURN JUMPDEST SWAP2 SWAP1 POP CALLVALUE PUSH2 0x205 JUMPI DUP1 PUSH1 0x3 NOT CALLDATASIZE ADD SLT PUSH2 0x205 JUMPI PUSH2 0x2AE PUSH2 0xA75 JUMP JUMPDEST SWAP1 PUSH1 0x24 CALLDATALOAD SWAP2 DUP3 ISZERO ISZERO DUP1 SWAP4 SUB PUSH2 0x331 JUMPI PUSH1 0x1 PUSH1 0x1 PUSH1 0xA0 SHL SUB AND SWAP3 DUP4 ISZERO PUSH2 0x31C JUMPI POP CALLER DUP5 MSTORE PUSH1 0x5 PUSH1 0x20 MSTORE DUP1 DUP5 KECCAK256 DUP4 DUP6 MSTORE PUSH1 0x20 MSTORE DUP1 DUP5 KECCAK256 PUSH1 0xFF NOT DUP2 SLOAD AND PUSH1 0xFF DUP5 AND OR SWAP1 SSTORE MLOAD SWAP1 DUP2 MSTORE PUSH32 0x17307EAB39AB6107E8899845AD3D59BD9653F200F220920489CA2B5937696C31 PUSH1 0x20 CALLER SWAP3 LOG3 DUP1 RETURN JUMPDEST DUP4 PUSH1 0x24 SWAP3 MLOAD SWAP2 PUSH4 0xB611743 PUSH1 0xE3 SHL DUP4 MSTORE DUP3 ADD MSTORE REVERT JUMPDEST DUP5 DUP1 REVERT JUMPDEST POP POP CALLVALUE PUSH2 0x10B JUMPI DUP2 PUSH1 0x3 NOT CALLDATASIZE ADD SLT PUSH2 0x10B JUMPI DUP1 MLOAD SWAP1 DUP3 PUSH1 0x1 DUP1 SLOAD SWAP2 PUSH2 0x359 DUP4 PUSH2 0xB4B JUMP JUMPDEST DUP1 DUP7 MSTORE SWAP3 DUP3 DUP2 AND SWAP1 DUP2 ISZERO PUSH2 0x3F0 JUMPI POP PUSH1 0x1 EQ PUSH2 0x394 JUMPI JUMPDEST POP POP POP PUSH2 0x382 DUP3 PUSH2 0x198 SWAP5 SUB DUP4 PUSH2 0xB0D JUMP JUMPDEST MLOAD SWAP2 DUP3 SWAP2 PUSH1 0x20 DUP4 MSTORE PUSH1 0x20 DUP4 ADD SWAP1 PUSH2 0xA35 JUMP JUMPDEST SWAP5 POP DUP1 DUP6 MSTORE PUSH32 0xB10E2D527612073B26EECDFD717E6A320CF44B4AFAC2B0732D9FCBE2B7FA0CF6 JUMPDEST DUP3 DUP7 LT PUSH2 0x3D8 JUMPI POP POP POP PUSH2 0x382 DUP3 PUSH1 0x20 PUSH2 0x198 SWAP6 DUP3 ADD ADD SWAP5 PUSH2 0x370 JUMP JUMPDEST DUP1 SLOAD PUSH1 0x20 DUP8 DUP8 ADD DUP2 ADD SWAP2 SWAP1 SWAP2 MSTORE SWAP1 SWAP6 ADD SWAP5 DUP2 ADD PUSH2 0x3BB JUMP JUMPDEST PUSH2 0x198 SWAP8 POP DUP7 SWAP4 POP PUSH1 0x20 SWAP3 POP PUSH2 0x382 SWAP5 SWAP2 POP PUSH1 0xFF NOT AND DUP3 DUP5 ADD MSTORE ISZERO ISZERO PUSH1 0x5 SHL DUP3 ADD ADD SWAP5 PUSH2 0x370 JUMP JUMPDEST DUP3 DUP5 CALLVALUE PUSH2 0x46D JUMPI PUSH1 0x20 CALLDATASIZE PUSH1 0x3 NOT ADD SLT PUSH2 0x46D JUMPI PUSH1 0x1 PUSH1 0x1 PUSH1 0xA0 SHL SUB PUSH2 0x43B PUSH2 0xA75 JUMP JUMPDEST AND SWAP3 DUP4 ISZERO PUSH2 0x458 JUMPI POP DUP1 PUSH1 0x20 SWAP4 DUP4 SWAP3 MSTORE PUSH1 0x3 DUP5 MSTORE KECCAK256 SLOAD SWAP1 MLOAD SWAP1 DUP2 MSTORE RETURN JUMPDEST SWAP2 MLOAD PUSH4 0x22718AD9 PUSH1 0xE2 SHL DUP2 MSTORE SWAP2 DUP3 ADD MSTORE PUSH1 0x24 SWAP1 REVERT JUMPDEST DUP1 REVERT JUMPDEST DUP3 DUP5 CALLVALUE PUSH2 0x46D JUMPI PUSH1 0x20 CALLDATASIZE PUSH1 0x3 NOT ADD SLT PUSH2 0x46D JUMPI POP PUSH2 0x490 PUSH1 0x20 SWAP3 CALLDATALOAD PUSH2 0xE73 JUMP JUMPDEST SWAP1 MLOAD PUSH1 0x1 PUSH1 0x1 PUSH1 0xA0 SHL SUB SWAP1 SWAP2 AND DUP2 MSTORE RETURN JUMPDEST POP POP CALLVALUE PUSH2 0x10B JUMPI PUSH2 0x290 SWAP1 PUSH2 0x4B5 CALLDATASIZE PUSH2 0xAA6 JUMP JUMPDEST SWAP2 SWAP3 MLOAD SWAP3 PUSH2 0x4C2 DUP5 PUSH2 0xADB JUMP JUMPDEST DUP6 DUP5 MSTORE PUSH2 0xD24 JUMP JUMPDEST DUP4 CALLVALUE PUSH2 0x46D JUMPI PUSH2 0x290 PUSH2 0x4DC CALLDATASIZE PUSH2 0xAA6 JUMP JUMPDEST SWAP2 PUSH2 0xB85 JUMP JUMPDEST DUP4 DUP4 CALLVALUE PUSH2 0x10B JUMPI DUP2 PUSH1 0x3 NOT CALLDATASIZE ADD SLT PUSH2 0x10B JUMPI PUSH1 0x7 SLOAD PUSH1 0x0 NOT SWAP4 SWAP1 DUP5 DUP2 EQ PUSH2 0x7DC JUMPI PUSH1 0x1 DUP1 SWAP2 ADD SWAP4 DUP5 PUSH1 0x7 SSTORE CALLER ISZERO PUSH2 0x7C6 JUMPI DUP5 DUP2 MSTORE PUSH1 0x20 SWAP6 PUSH1 0x2 DUP8 MSTORE PUSH1 0x1 DUP1 PUSH1 0xA0 SHL SUB DUP6 DUP4 KECCAK256 SLOAD AND DUP7 DUP2 ISZERO ISZERO SWAP2 DUP3 PUSH2 0x795 JUMPI JUMPDEST CALLER DUP1 DUP7 MSTORE PUSH1 0x3 DUP12 MSTORE DUP9 DUP7 KECCAK256 DUP1 SLOAD DUP9 ADD SWAP1 SSTORE DUP3 DUP7 MSTORE PUSH1 0x2 DUP12 MSTORE DUP9 DUP7 KECCAK256 DUP1 SLOAD PUSH1 0x1 PUSH1 0x1 PUSH1 0xA0 SHL SUB NOT AND DUP3 OR SWAP1 SSTORE SWAP1 PUSH32 0xDDF252AD1BE2C89B69C2B068FC378DAA952BA7F163C4A11628F55A4DF523B3EF DUP7 DUP1 LOG4 PUSH2 0x77E JUMPI DUP5 MLOAD PUSH8 0xFFFFFFFFFFFFFFFF SWAP3 SWAP1 PUSH1 0xA0 DUP2 ADD DUP5 DUP2 GT DUP3 DUP3 LT OR PUSH2 0x76B JUMPI DUP8 MSTORE PUSH1 0x66 DUP2 MSTORE PUSH32 0x68747470733A2F2F617175616D6172696E652D726172652D66697265666C792D DUP10 DUP3 ADD MSTORE PUSH32 0x3735362E6D7970696E6174612E636C6F75642F697066732F516D58794D357A76 DUP8 DUP3 ADD MSTORE PUSH32 0x7A463647686A637948754C6F54536D7376686A78455778525275595576376A44 PUSH1 0x60 DUP3 ADD MSTORE PUSH6 0x28B7BD311AB1 PUSH1 0xD1 SHL PUSH1 0x80 DUP3 ADD MSTORE DUP8 DUP3 MSTORE PUSH1 0x6 DUP10 MSTORE DUP7 DUP3 KECCAK256 SWAP6 DUP2 MLOAD SWAP5 DUP6 GT PUSH2 0x758 JUMPI POP PUSH2 0x648 DUP7 SLOAD PUSH2 0xB4B JUMP JUMPDEST PUSH1 0x1F DUP2 GT PUSH2 0x712 JUMPI JUMPDEST POP DUP9 SWAP2 PUSH1 0x1F DUP6 GT PUSH1 0x1 EQ PUSH2 0x6B2 JUMPI SWAP2 DUP5 SWAP6 SWAP2 DUP6 SWAP4 SWAP6 PUSH2 0x6A7 JUMPI JUMPDEST POP POP SHL SWAP3 PUSH1 0x3 SHL SHR NOT AND OR SWAP1 SSTORE JUMPDEST PUSH32 0xF8E1A15ABA9398E019F0B49DF1A4FDE98EE17AE345CB5F6B5E2C27F5033E8CE7 DUP4 DUP3 MLOAD DUP5 DUP2 MSTORE LOG1 MLOAD SWAP1 DUP2 MSTORE RETURN JUMPDEST ADD MLOAD SWAP4 POP DUP10 DUP1 PUSH2 0x66B JUMP JUMPDEST SWAP3 SWAP2 SWAP1 DUP5 PUSH1 0x1F NOT DUP2 AND DUP9 DUP7 MSTORE DUP12 DUP7 KECCAK256 SWAP6 JUMPDEST DUP13 DUP10 DUP4 DUP4 LT PUSH2 0x6FB JUMPI POP POP POP LT PUSH2 0x6E3 JUMPI JUMPDEST POP POP POP POP DUP2 SHL ADD SWAP1 SSTORE PUSH2 0x679 JUMP JUMPDEST ADD MLOAD SWAP1 PUSH1 0xF8 DUP5 PUSH1 0x3 SHL AND SHR NOT AND SWAP1 SSTORE DUP7 DUP1 DUP1 DUP1 PUSH2 0x6D5 JUMP JUMPDEST DUP7 DUP7 ADD MLOAD DUP10 SSTORE SWAP1 SWAP8 ADD SWAP7 SWAP5 DUP6 ADD SWAP5 DUP9 SWAP4 POP ADD PUSH2 0x6C3 JUMP JUMPDEST DUP7 DUP4 MSTORE DUP10 DUP4 KECCAK256 PUSH1 0x1F DUP7 ADD PUSH1 0x5 SHR DUP2 ADD SWAP2 DUP12 DUP8 LT PUSH2 0x74E JUMPI JUMPDEST PUSH1 0x1F ADD PUSH1 0x5 SHR ADD SWAP1 DUP7 SWAP1 JUMPDEST DUP3 DUP2 LT PUSH2 0x743 JUMPI POP POP PUSH2 0x651 JUMP JUMPDEST DUP5 DUP2 SSTORE ADD DUP7 SWAP1 PUSH2 0x735 JUMP JUMPDEST SWAP1 SWAP2 POP DUP2 SWAP1 PUSH2 0x72A JUMP JUMPDEST PUSH4 0x4E487B71 PUSH1 0xE0 SHL DUP4 MSTORE PUSH1 0x41 SWAP1 MSTORE PUSH1 0x24 DUP3 REVERT JUMPDEST PUSH4 0x4E487B71 PUSH1 0xE0 SHL DUP4 MSTORE PUSH1 0x41 DUP8 MSTORE PUSH1 0x24 DUP4 REVERT JUMPDEST DUP5 MLOAD PUSH4 0x39E35637 PUSH1 0xE1 SHL DUP2 MSTORE DUP1 DUP6 ADD DUP4 SWAP1 MSTORE PUSH1 0x24 SWAP1 REVERT JUMPDEST PUSH1 0x0 DUP3 DUP2 MSTORE PUSH1 0x4 PUSH1 0x20 MSTORE PUSH1 0x40 SWAP1 KECCAK256 DUP1 SLOAD PUSH1 0x1 PUSH1 0x1 PUSH1 0xA0 SHL SUB NOT AND SWAP1 SSTORE DUP1 DUP6 MSTORE PUSH1 0x3 DUP11 MSTORE DUP8 DUP6 KECCAK256 DUP5 DUP2 SLOAD ADD SWAP1 SSTORE PUSH2 0x534 JUMP JUMPDEST SWAP1 POP PUSH1 0x24 SWAP3 MLOAD SWAP2 PUSH4 0x32505749 PUSH1 0xE1 SHL DUP4 MSTORE DUP3 ADD MSTORE REVERT JUMPDEST PUSH4 0x4E487B71 PUSH1 0xE0 SHL DUP5 MSTORE PUSH1 0x11 DUP3 MSTORE PUSH1 0x24 DUP5 REVERT JUMPDEST SWAP2 SWAP1 POP CALLVALUE PUSH2 0x205 JUMPI DUP1 PUSH1 0x3 NOT CALLDATASIZE ADD SLT PUSH2 0x205 JUMPI PUSH2 0x80A PUSH2 0xA75 JUMP JUMPDEST SWAP2 PUSH1 0x24 CALLDATALOAD PUSH2 0x817 DUP2 PUSH2 0xE73 JUMP JUMPDEST CALLER ISZERO ISZERO DUP1 PUSH2 0x8B9 JUMPI JUMPDEST DUP1 PUSH2 0x890 JUMPI JUMPDEST PUSH2 0x87A JUMPI PUSH1 0x1 PUSH1 0x1 PUSH1 0xA0 SHL SUB SWAP5 DUP6 AND SWAP5 DUP3 SWAP2 DUP7 SWAP2 AND PUSH32 0x8C5BE1E5EBEC7D5BD14F71427D1E84F3DD0314C0F7B2291E5B200AC8C7C3B925 DUP9 DUP1 LOG4 DUP5 MSTORE PUSH1 0x20 MSTORE DUP3 KECCAK256 DUP1 SLOAD PUSH1 0x1 PUSH1 0x1 PUSH1 0xA0 SHL SUB NOT AND SWAP1 SWAP2 OR SWAP1 SSTORE DUP1 RETURN JUMPDEST DUP4 MLOAD PUSH4 0xA9FBF51F PUSH1 0xE0 SHL DUP2 MSTORE CALLER DUP2 DUP6 ADD MSTORE PUSH1 0x24 SWAP1 REVERT JUMPDEST POP PUSH1 0x1 PUSH1 0x1 PUSH1 0xA0 SHL SUB DUP2 AND DUP7 MSTORE PUSH1 0x5 PUSH1 0x20 SWAP1 DUP2 MSTORE DUP5 DUP8 KECCAK256 CALLER DUP9 MSTORE SWAP1 MSTORE DUP4 DUP7 KECCAK256 SLOAD PUSH1 0xFF AND ISZERO PUSH2 0x826 JUMP JUMPDEST POP PUSH1 0x1 PUSH1 0x1 PUSH1 0xA0 SHL SUB DUP2 AND CALLER EQ ISZERO PUSH2 0x820 JUMP JUMPDEST SWAP1 POP CALLVALUE PUSH2 0x205 JUMPI PUSH1 0x20 CALLDATASIZE PUSH1 0x3 NOT ADD SLT PUSH2 0x205 JUMPI SWAP2 DUP3 PUSH1 0x20 SWAP4 CALLDATALOAD PUSH2 0x8EE DUP2 PUSH2 0xE73 JUMP JUMPDEST POP DUP3 MSTORE DUP4 MSTORE DUP2 SWAP1 KECCAK256 SLOAD SWAP1 MLOAD PUSH1 0x1 PUSH1 0x1 PUSH1 0xA0 SHL SUB SWAP1 SWAP2 AND DUP2 MSTORE RETURN JUMPDEST POP POP CALLVALUE PUSH2 0x10B JUMPI DUP2 PUSH1 0x3 NOT CALLDATASIZE ADD SLT PUSH2 0x10B JUMPI DUP1 MLOAD SWAP1 DUP3 DUP1 SLOAD PUSH2 0x929 DUP2 PUSH2 0xB4B JUMP JUMPDEST DUP1 DUP6 MSTORE SWAP2 PUSH1 0x1 SWAP2 DUP1 DUP4 AND SWAP1 DUP2 ISZERO PUSH2 0x3F0 JUMPI POP PUSH1 0x1 EQ PUSH2 0x954 JUMPI POP POP POP PUSH2 0x382 DUP3 PUSH2 0x198 SWAP5 SUB DUP4 PUSH2 0xB0D JUMP JUMPDEST DUP1 DUP1 SWAP7 POP MSTORE PUSH32 0x290DECD9548B62A8D60345A988386FC84BA6BC95484008F6362F93160EF3E563 JUMPDEST DUP3 DUP7 LT PUSH2 0x998 JUMPI POP POP POP PUSH2 0x382 DUP3 PUSH1 0x20 PUSH2 0x198 SWAP6 DUP3 ADD ADD SWAP5 PUSH2 0x370 JUMP JUMPDEST DUP1 SLOAD PUSH1 0x20 DUP8 DUP8 ADD DUP2 ADD SWAP2 SWAP1 SWAP2 MSTORE SWAP1 SWAP6 ADD SWAP5 DUP2 ADD PUSH2 0x97B JUMP JUMPDEST DUP5 SWAP2 CALLVALUE PUSH2 0x205 JUMPI PUSH1 0x20 CALLDATASIZE PUSH1 0x3 NOT ADD SLT PUSH2 0x205 JUMPI CALLDATALOAD PUSH4 0xFFFFFFFF PUSH1 0xE0 SHL DUP2 AND DUP1 SWAP2 SUB PUSH2 0x205 JUMPI PUSH1 0x20 SWAP3 POP PUSH4 0x24832483 PUSH1 0xE1 SHL DUP2 EQ SWAP1 DUP2 ISZERO PUSH2 0x9F2 JUMPI JUMPDEST POP ISZERO ISZERO DUP2 MSTORE RETURN JUMPDEST PUSH4 0x80AC58CD PUSH1 0xE0 SHL DUP2 EQ SWAP2 POP DUP2 ISZERO PUSH2 0xA24 JUMPI JUMPDEST DUP2 ISZERO PUSH2 0xA13 JUMPI JUMPDEST POP DUP4 PUSH2 0x9EB JUMP JUMPDEST PUSH4 0x1FFC9A7 PUSH1 0xE0 SHL EQ SWAP1 POP DUP4 PUSH2 0xA0C JUMP JUMPDEST PUSH4 0x5B5E139F PUSH1 0xE0 SHL DUP2 EQ SWAP2 POP PUSH2 0xA05 JUMP JUMPDEST SWAP2 SWAP1 DUP3 MLOAD SWAP3 DUP4 DUP3 MSTORE PUSH1 0x0 JUMPDEST DUP5 DUP2 LT PUSH2 0xA61 JUMPI POP POP DUP3 PUSH1 0x0 PUSH1 0x20 DUP1 SWAP5 SWAP6 DUP5 ADD ADD MSTORE PUSH1 0x1F DUP1 NOT SWAP2 ADD AND ADD ADD SWAP1 JUMP JUMPDEST PUSH1 0x20 DUP2 DUP4 ADD DUP2 ADD MLOAD DUP5 DUP4 ADD DUP3 ADD MSTORE ADD PUSH2 0xA40 JUMP JUMPDEST PUSH1 0x4 CALLDATALOAD SWAP1 PUSH1 0x1 PUSH1 0x1 PUSH1 0xA0 SHL SUB DUP3 AND DUP3 SUB PUSH2 0xA8B JUMPI JUMP JUMPDEST PUSH1 0x0 DUP1 REVERT JUMPDEST PUSH1 0x24 CALLDATALOAD SWAP1 PUSH1 0x1 PUSH1 0x1 PUSH1 0xA0 SHL SUB DUP3 AND DUP3 SUB PUSH2 0xA8B JUMPI JUMP JUMPDEST PUSH1 0x60 SWAP1 PUSH1 0x3 NOT ADD SLT PUSH2 0xA8B JUMPI PUSH1 0x1 PUSH1 0x1 PUSH1 0xA0 SHL SUB SWAP1 PUSH1 0x4 CALLDATALOAD DUP3 DUP2 AND DUP2 SUB PUSH2 0xA8B JUMPI SWAP2 PUSH1 0x24 CALLDATALOAD SWAP1 DUP2 AND DUP2 SUB PUSH2 0xA8B JUMPI SWAP1 PUSH1 0x44 CALLDATALOAD SWAP1 JUMP JUMPDEST PUSH1 0x20 DUP2 ADD SWAP1 DUP2 LT PUSH8 0xFFFFFFFFFFFFFFFF DUP3 GT OR PUSH2 0xAF7 JUMPI PUSH1 0x40 MSTORE JUMP JUMPDEST PUSH4 0x4E487B71 PUSH1 0xE0 SHL PUSH1 0x0 MSTORE PUSH1 0x41 PUSH1 0x4 MSTORE PUSH1 0x24 PUSH1 0x0 REVERT JUMPDEST SWAP1 PUSH1 0x1F DUP1 NOT SWAP2 ADD AND DUP2 ADD SWAP1 DUP2 LT PUSH8 0xFFFFFFFFFFFFFFFF DUP3 GT OR PUSH2 0xAF7 JUMPI PUSH1 0x40 MSTORE JUMP JUMPDEST PUSH8 0xFFFFFFFFFFFFFFFF DUP2 GT PUSH2 0xAF7 JUMPI PUSH1 0x1F ADD PUSH1 0x1F NOT AND PUSH1 0x20 ADD SWAP1 JUMP JUMPDEST SWAP1 PUSH1 0x1 DUP3 DUP2 SHR SWAP3 AND DUP1 ISZERO PUSH2 0xB7B JUMPI JUMPDEST PUSH1 0x20 DUP4 LT EQ PUSH2 0xB65 JUMPI JUMP JUMPDEST PUSH4 0x4E487B71 PUSH1 0xE0 SHL PUSH1 0x0 MSTORE PUSH1 0x22 PUSH1 0x4 MSTORE PUSH1 0x24 PUSH1 0x0 REVERT JUMPDEST SWAP2 PUSH1 0x7F AND SWAP2 PUSH2 0xB5A JUMP JUMPDEST PUSH1 0x1 PUSH1 0x1 PUSH1 0xA0 SHL SUB SWAP2 DUP3 AND SWAP3 SWAP1 SWAP2 DUP4 ISZERO PUSH2 0xD0B JUMPI PUSH1 0x0 SWAP3 DUP3 DUP5 MSTORE DUP3 PUSH1 0x20 SWAP6 PUSH1 0x2 DUP8 MSTORE PUSH1 0x40 SWAP7 DUP5 DUP9 DUP9 KECCAK256 SLOAD AND SWAP7 DUP8 SWAP2 CALLER ISZERO ISZERO DUP1 PUSH2 0xC75 JUMPI JUMPDEST POP SWAP1 PUSH1 0x2 PUSH32 0xDDF252AD1BE2C89B69C2B068FC378DAA952BA7F163C4A11628F55A4DF523B3EF SWAP3 DUP5 PUSH2 0xC42 JUMPI JUMPDEST DUP6 DUP4 MSTORE PUSH1 0x3 DUP2 MSTORE DUP12 DUP4 KECCAK256 DUP1 SLOAD PUSH1 0x1 ADD SWAP1 SSTORE DUP7 DUP4 MSTORE MSTORE DUP10 DUP2 KECCAK256 DUP1 SLOAD PUSH1 0x1 PUSH1 0x1 PUSH1 0xA0 SHL SUB NOT AND DUP6 OR SWAP1 SSTORE DUP1 LOG4 AND SWAP3 DUP4 DUP4 SUB PUSH2 0xC21 JUMPI POP POP POP POP JUMP JUMPDEST PUSH1 0x64 SWAP5 POP MLOAD SWAP3 PUSH4 0x64283D7B PUSH1 0xE0 SHL DUP5 MSTORE PUSH1 0x4 DUP5 ADD MSTORE PUSH1 0x24 DUP4 ADD MSTORE PUSH1 0x44 DUP3 ADD MSTORE REVERT JUMPDEST PUSH1 0x0 DUP8 DUP2 MSTORE PUSH1 0x4 PUSH1 0x20 MSTORE PUSH1 0x40 SWAP1 KECCAK256 DUP1 SLOAD PUSH1 0x1 PUSH1 0x1 PUSH1 0xA0 SHL SUB NOT AND SWAP1 SSTORE DUP5 DUP4 MSTORE PUSH1 0x3 DUP2 MSTORE DUP12 DUP4 KECCAK256 DUP1 SLOAD PUSH1 0x0 NOT ADD SWAP1 SSTORE PUSH2 0xBE8 JUMP JUMPDEST SWAP2 SWAP4 SWAP5 POP SWAP2 POP DUP1 PUSH2 0xCCA JUMPI JUMPDEST ISZERO PUSH2 0xC91 JUMPI DUP6 SWAP3 SWAP2 DUP8 SWAP2 CODESIZE PUSH2 0xBBC JUMP JUMPDEST DUP8 DUP7 DUP9 PUSH2 0xCAE JUMPI PUSH1 0x24 SWAP2 MLOAD SWAP1 PUSH4 0x7E273289 PUSH1 0xE0 SHL DUP3 MSTORE PUSH1 0x4 DUP3 ADD MSTORE REVERT JUMPDEST PUSH1 0x44 SWAP2 MLOAD SWAP1 PUSH4 0x177E802F PUSH1 0xE0 SHL DUP3 MSTORE CALLER PUSH1 0x4 DUP4 ADD MSTORE PUSH1 0x24 DUP3 ADD MSTORE REVERT JUMPDEST POP CALLER DUP8 EQ DUP1 ISZERO PUSH2 0xCEF JUMPI JUMPDEST DUP1 PUSH2 0xC81 JUMPI POP DUP6 DUP3 MSTORE PUSH1 0x4 DUP2 MSTORE CALLER DUP6 DUP10 DUP5 KECCAK256 SLOAD AND EQ PUSH2 0xC81 JUMP JUMPDEST POP DUP7 DUP3 MSTORE PUSH1 0x5 DUP2 MSTORE DUP8 DUP3 KECCAK256 CALLER DUP4 MSTORE DUP2 MSTORE PUSH1 0xFF DUP9 DUP4 KECCAK256 SLOAD AND PUSH2 0xCD5 JUMP JUMPDEST PUSH1 0x40 MLOAD PUSH4 0x32505749 PUSH1 0xE1 SHL DUP2 MSTORE PUSH1 0x0 PUSH1 0x4 DUP3 ADD MSTORE PUSH1 0x24 SWAP1 REVERT JUMPDEST PUSH2 0xD2F DUP4 DUP4 DUP4 PUSH2 0xB85 JUMP JUMPDEST DUP2 EXTCODESIZE PUSH2 0xD3C JUMPI JUMPDEST POP POP POP POP JUMP JUMPDEST PUSH1 0x40 MLOAD PUSH4 0xA85BD01 PUSH1 0xE1 SHL DUP1 DUP3 MSTORE CALLER PUSH1 0x4 DUP4 ADD MSTORE PUSH1 0x1 PUSH1 0x1 PUSH1 0xA0 SHL SUB SWAP3 DUP4 AND PUSH1 0x24 DUP4 ADD MSTORE PUSH1 0x44 DUP3 ADD SWAP5 SWAP1 SWAP5 MSTORE PUSH1 0x80 PUSH1 0x64 DUP3 ADD MSTORE PUSH1 0x20 SWAP6 SWAP3 SWAP1 SWAP2 AND SWAP4 SWAP1 SWAP3 SWAP1 DUP4 SWAP1 PUSH2 0xD8A SWAP1 PUSH1 0x84 DUP4 ADD SWAP1 PUSH2 0xA35 JUMP JUMPDEST SUB SWAP3 DUP6 DUP2 PUSH1 0x0 SWAP6 DUP2 DUP8 DUP10 GAS CALL DUP5 SWAP2 DUP2 PUSH2 0xE33 JUMPI JUMPDEST POP PUSH2 0xDFE JUMPI POP POP POP RETURNDATASIZE PUSH1 0x0 EQ PUSH2 0xDF6 JUMPI RETURNDATASIZE PUSH2 0xDB8 DUP2 PUSH2 0xB2F JUMP JUMPDEST SWAP1 PUSH2 0xDC6 PUSH1 0x40 MLOAD SWAP3 DUP4 PUSH2 0xB0D JUMP JUMPDEST DUP2 MSTORE DUP1 SWAP2 DUP5 RETURNDATASIZE SWAP3 ADD RETURNDATACOPY JUMPDEST DUP1 MLOAD SWAP3 DUP4 PUSH2 0xDF1 JUMPI PUSH1 0x40 MLOAD PUSH4 0x32505749 PUSH1 0xE1 SHL DUP2 MSTORE PUSH1 0x4 DUP2 ADD DUP5 SWAP1 MSTORE PUSH1 0x24 SWAP1 REVERT JUMPDEST ADD SWAP1 POP REVERT JUMPDEST POP PUSH1 0x60 PUSH2 0xDD0 JUMP JUMPDEST SWAP2 SWAP5 POP SWAP2 POP PUSH4 0xFFFFFFFF PUSH1 0xE0 SHL AND SUB PUSH2 0xE1B JUMPI POP CODESIZE DUP1 DUP1 DUP1 PUSH2 0xD36 JUMP JUMPDEST PUSH1 0x24 SWAP1 PUSH1 0x40 MLOAD SWAP1 PUSH4 0x32505749 PUSH1 0xE1 SHL DUP3 MSTORE PUSH1 0x4 DUP3 ADD MSTORE REVERT JUMPDEST SWAP1 SWAP2 POP DUP7 DUP2 DUP2 RETURNDATASIZE DUP4 GT PUSH2 0xE6C JUMPI JUMPDEST PUSH2 0xE4B DUP2 DUP4 PUSH2 0xB0D JUMP JUMPDEST DUP2 ADD SUB SLT PUSH2 0x331 JUMPI MLOAD PUSH1 0x1 PUSH1 0x1 PUSH1 0xE0 SHL SUB NOT DUP2 AND DUP2 SUB PUSH2 0x331 JUMPI SWAP1 CODESIZE PUSH2 0xD9E JUMP JUMPDEST POP RETURNDATASIZE PUSH2 0xE41 JUMP JUMPDEST PUSH1 0x0 DUP2 DUP2 MSTORE PUSH1 0x2 PUSH1 0x20 MSTORE PUSH1 0x40 SWAP1 KECCAK256 SLOAD PUSH1 0x1 PUSH1 0x1 PUSH1 0xA0 SHL SUB AND SWAP1 DUP2 ISZERO PUSH2 0xE96 JUMPI POP SWAP1 JUMP JUMPDEST PUSH1 0x24 SWAP1 PUSH1 0x40 MLOAD SWAP1 PUSH4 0x7E273289 PUSH1 0xE0 SHL DUP3 MSTORE PUSH1 0x4 DUP3 ADD MSTORE REVERT INVALID LOG2 PUSH5 0x6970667358 0x22 SLT KECCAK256 SELFDESTRUCT 0x21 CODESIZE 0xE 0xE7 0xC5 0xDA 0xDE PUSH30 0x48787B9E22FEAE0C3E281886B9C50292107C61D8C561A164736F6C634300 ADDMOD EQ STOP CALLER "
        },
        "methodIdentifiers": {
          "approve(address,uint256)": "095ea7b3",
          "balanceOf(address)": "70a08231",
          "getApproved(uint256)": "081812fc",
          "isApprovedForAll(address,address)": "e985e9c5",
          "mintNFT()": "14f710fe",
          "name()": "06fdde03",
          "ownerOf(uint256)": "6352211e",
          "safeTransferFrom(address,address,uint256)": "42842e0e",
          "safeTransferFrom(address,address,uint256,bytes)": "b88d4fde",
          "setApprovalForAll(address,bool)": "a22cb465",
          "supportsInterface(bytes4)": "01ffc9a7",
          "symbol()": "95d89b41",
          "tokenURI(uint256)": "c87b56dd",
          "transferFrom(address,address,uint256)": "23b872dd"
        }
      }
    }
  }
}