{
  "_format": "hh-sol-artifact-1",
  "contractName": "Vitalik",
  "sourceName": "contracts/NFT.sol",
  "abi": [
    {
      "inputs": [],
      "stateMutability": "nonpayable",
      "type": "constructor"
    },
    {
      "anonymous": false,
      "inputs": [
        {
          "indexed": true,
          "internalType": "address",
          "name": "owner",
          "type": "address"
        },
        {
          "indexed": true,
          "internalType": "address",
          "name": "approved",
          "type": "address"
        },
        {
          "indexed": true,
          "internalType": "uint256",
          "name": "tokenId",
          "type": "uint256"
        }
      ],
      "name": "Approval",
      "type": "event"
    },
    {
      "anonymous": false,
      "inputs": [
        {
          "indexed": true,
          "internalType": "address",
          "name": "owner",
          "type": "address"
        },
        {
          "indexed": true,
          "internalType": "address",
          "name": "operator",
          "type": "address"
        },
        {
          "indexed": false,
          "internalType": "bool",
          "name": "approved",
          "type": "bool"
        }
      ],
      "name": "ApprovalForAll",
      "type": "event"
    },
    {
      "anonymous": false,
      "inputs": [
        {
          "indexed": true,
          "internalType": "address",
          "name": "from",
          "type": "address"
        },
        {
          "indexed": true,
          "internalType": "address",
          "name": "to",
          "type": "address"
        },
        {
          "indexed": true,
          "internalType": "uint256",
          "name": "tokenId",
          "type": "uint256"
        }
      ],
      "name": "Transfer",
      "type": "event"
    },
    {
      "inputs": [
        {
          "internalType": "address",
          "name": "to",
          "type": "address"
        },
        {
          "internalType": "uint256",
          "name": "tokenId",
          "type": "uint256"
        }
      ],
      "name": "approve",
      "outputs": [],
      "stateMutability": "nonpayable",
      "type": "function"
    },
    {
      "inputs": [
        {
          "internalType": "address",
          "name": "owner",
          "type": "address"
        }
      ],
      "name": "balanceOf",
      "outputs": [
        {
          "internalType": "uint256",
          "name": "",
          "type": "uint256"
        }
      ],
      "stateMutability": "view",
      "type": "function"
    },
    {
      "inputs": [
        {
          "internalType": "uint256",
          "name": "tokenId",
          "type": "uint256"
        }
      ],
      "name": "getApproved",
      "outputs": [
        {
          "internalType": "address",
          "name": "",
          "type": "address"
        }
      ],
      "stateMutability": "view",
      "type": "function"
    },
    {
      "inputs": [
        {
          "internalType": "address",
          "name": "owner",
          "type": "address"
        },
        {
          "internalType": "address",
          "name": "operator",
          "type": "address"
        }
      ],
      "name": "isApprovedForAll",
      "outputs": [
        {
          "internalType": "bool",
          "name": "",
          "type": "bool"
        }
      ],
      "stateMutability": "view",
      "type": "function"
    },
    {
      "inputs": [],
      "name": "mintNFT",
      "outputs": [
        {
          "internalType": "uint256",
          "name": "",
          "type": "uint256"
        }
      ],
      "stateMutability": "nonpayable",
      "type": "function"
    },
    {
      "inputs": [],
      "name": "name",
      "outputs": [
        {
          "internalType": "string",
          "name": "",
          "type": "string"
        }
      ],
      "stateMutability": "view",
      "type": "function"
    },
    {
      "inputs": [
        {
          "internalType": "uint256",
          "name": "tokenId",
          "type": "uint256"
        }
      ],
      "name": "ownerOf",
      "outputs": [
        {
          "internalType": "address",
          "name": "",
          "type": "address"
        }
      ],
      "stateMutability": "view",
      "type": "function"
    },
    {
      "inputs": [
        {
          "internalType": "address",
          "name": "from",
          "type": "address"
        },
        {
          "internalType": "address",
          "name": "to",
          "type": "address"
        },
        {
          "internalType": "uint256",
          "name": "tokenId",
          "type": "uint256"
        }
      ],
      "name": "safeTransferFrom",
      "outputs": [],
      "stateMutability": "nonpayable",
      "type": "function"
    },
    {
      "inputs": [
        {
          "internalType": "address",
          "name": "from",
          "type": "address"
        },
        {
          "internalType": "address",
          "name": "to",
          "type": "address"
        },
        {
          "internalType": "uint256",
          "name": "tokenId",
          "type": "uint256"
        },
        {
          "internalType": "bytes",
          "name": "data",
          "type": "bytes"
        }
      ],
      "name": "safeTransferFrom",
      "outputs": [],
      "stateMutability": "nonpayable",
      "type": "function"
    },
    {
      "inputs": [
        {
          "internalType": "address",
          "name": "operator",
          "type": "address"
        },
        {
          "internalType": "bool",
          "name": "approved",
          "type": "bool"
        }
      ],
      "name": "setApprovalForAll",
      "outputs": [],
      "stateMutability": "nonpayable",
      "type": "function"
    },
    {
      "inputs": [
        {
          "internalType": "bytes4",
          "name": "interfaceId",
          "type": "bytes4"
        }
      ],
      "name": "supportsInterface",
      "outputs": [
        {
          "internalType": "bool",
          "name": "",
          "type": "bool"
        }
      ],
      "stateMutability": "view",
      "type": "function"
    },
    {
      "inputs": [],
      "name": "symbol",
      "outputs": [
        {
          "internalType": "string",
          "name": "",
          "type": "string"
        }
      ],
      "stateMutability": "view",
      "type": "function"
    },
    {
      "inputs": [
        {
          "internalType": "uint256",
          "name": "tokenId",
          "type": "uint256"
        }
      ],
      "name": "tokenURI",
      "outputs": [
        {
          "internalType": "string",
          "name": "",
          "type": "string"
        }
      ],
      "stateMutability": "view",
      "type": "function"
    },
    {
      "inputs": [
        {
          "internalType": "address",
          "name": "from",
          "type": "address"
        },
        {
          "internalType": "address",
          "name": "to",
          "type": "address"
        },
        {
          "internalType": "uint256",
          "name": "tokenId",
          "type": "uint256"
        }
      ],
      "name": "transferFrom",
      "outputs": [],
      "stateMutability": "nonpayable",
      "type": "function"
    }
  ],
  "bytecode": "0x608060409080825234620007795762000018816200077e565b600f815260206e2b34ba30b634b590213aba32b934b760891b8183015282519162000043836200077e565b6007835266564954414c494b60c81b8284015280516001600160401b039081811162000763576000948554916001948584811c9416801562000758575b8785101462000676578190601f9485811162000705575b508790858311600114620006a157899262000695575b5050600019600383901b1c191690851b1786555b805190838211620003ee5784548581811c911680156200068a575b87821014620006765790818484931162000623575b508690848311600114620005bf578892620005b3575b5050600019600383901b1c191690841b1783555b600754600019908181146200059f578401938460075533156200055d576000858152600260205260409020546200015f906001600160a01b031615155b156200079a565b60008581526002602052604090205462000184906001600160a01b0316151562000158565b33808852600387528888208054830190558588526002875288882080546001600160a01b031916821790558590887fddf252ad1be2c89b69c2b068fc378daa952ba7f163c4a11628f55a4df523b3ef8180a4875160a081018181108682111762000549578952606681527f68747470733a2f2f617175616d6172696e652d726172652d66697265666c792d878201527f3735362e6d7970696e6174612e636c6f75642f697066732f516d58794d357a76818a01527f7a463647686a637948754c6f54536d7376686a78455778525275595576376a4460608201526528b7bd311ab160d11b60808201526000868152600260205260409020546001600160a01b031615620004ee578588526006875288882092815191868311620004da5784548481811c91168015620004cf575b8a821014620004bb5786811162000473575b5088908684116001146200040e579383949184928c9562000402575b50501b9260031b1c19161790555b85516060810181811084821117620003ee578752602381527f546865204e465420494420257320686173206265656e206d696e74656420746f818601526220257360e81b81880152865163038fd88960e31b81870190815260606024830152825160848301819052909691958692895b838110620003d657505060c393508860a483850101526044830152336064830152601f199384910116810103608481018552011682019082821090821117620003c25784525182916a636f6e736f6c652e6c6f675afa50516112bc9081620007e88239f35b634e487b7160e01b84526041600452602484fd5b80860182015189820160a4015288945081016200035d565b634e487b7160e01b87526041600452602487fd5b015193503880620002df565b858b52898b2092919084601f1981168d5b8d898383106200045b575050501062000442575b50505050811b019055620002ed565b01519060f88460031b161c191690553880808062000433565b8686015189559097019694850194889350016200041f565b858b52898b208780860160051c8201928c8710620004b1575b0160051c019085905b828110620004a5575050620002c3565b8c815501859062000495565b925081926200048c565b634e487b7160e01b8b52602260045260248bfd5b90607f1690620002b1565b634e487b7160e01b8a52604160045260248afd5b885162461bcd60e51b815260048101889052602e60248201527f45524337323155524953746f726167653a2055524920736574206f66206e6f6e60448201526d32bc34b9ba32b73a103a37b5b2b760911b6064820152608490fd5b634e487b7160e01b89526041600452602489fd5b60648689519062461bcd60e51b825280600483015260248201527f4552433732313a206d696e7420746f20746865207a65726f20616464726573736044820152fd5b634e487b7160e01b87526011600452602487fd5b01519050388062000107565b8689528789208794509190601f1984168a5b8a8282106200060c5750508411620005f2575b505050811b0183556200011b565b015160001960f88460031b161c19169055388080620005e4565b8385015186558a97909501949384019301620005d1565b9091508588528688208480850160051c8201928986106200066c575b918891869594930160051c01915b8281106200065d575050620000f1565b8a81558594508891016200064d565b925081926200063f565b634e487b7160e01b88526022600452602488fd5b90607f1690620000dc565b015190503880620000ad565b898052888a208894509190601f1984168b5b8b828210620006ee5750508411620006d4575b505050811b018655620000c1565b015160001960f88460031b161c19169055388080620006c6565b8385015186558b97909501949384019301620006b3565b9091508880528789208580850160051c8201928a86106200074e575b918991869594930160051c01915b8281106200073f57505062000097565b8b81558594508991016200072f565b9250819262000721565b93607f169362000080565b634e487b7160e01b600052604160045260246000fd5b600080fd5b604081019081106001600160401b038211176200076357604052565b15620007a257565b60405162461bcd60e51b815260206004820152601c60248201527f4552433732313a20746f6b656e20616c7265616479206d696e746564000000006044820152606490fdfe608060408181526004918236101561001657600080fd5b600092833560e01c91826301ffc9a714610bd75750816306fdde0314610b2f578163081812fc14610b0f578163095ea7b3146109a157816314f710fe1461057c57816323b872dd1461055257816342842e0e146105295781636352211e146104f557816370a082311461045f57816395d89b411461037c578163a22cb465146102ac578163b88d4fde14610222578163c87b56dd1461010f575063e985e9c5146100bf57600080fd5b3461010b578060031936011261010b5760ff816020936100dd610c82565b6100e5610c9d565b6001600160a01b0391821683526005875283832091168252855220549151911615158152f35b5080fd5b9190503461021e576020918260031936011261021a5735600081815260026020526040902054610149906001600160a01b03161515610d58565b83526006825280832092815180948290805461016481610dca565b918285526001918883821691826000146101f35750506001146101b5575b5050506101b1939291610196910386610d1a565b81516101a181610ce8565b5251928284938452830190610c42565b0390f35b8552868520879350859291905b8284106101db57505050820101816101966101b1610182565b8054848b0186015289955088949093019281016101c2565b60ff19168782015293151560051b8601909301935084925061019691506101b19050610182565b8380fd5b8280fd5b9190503461021e57608036600319011261021e5761023e610c82565b610246610c9d565b846064359467ffffffffffffffff861161010b573660238701121561010b578501359461027e61027587610d3c565b95519586610d1a565b858552366024878301011161010b57856102a996602460209301838801378501015260443591610ea4565b80f35b9190503461021e578060031936011261021e576102c7610c82565b9060243591821515809303610378576001600160a01b0316923384146103365750338452600560205280842083855260205280842060ff1981541660ff8416179055519081527f17307eab39ab6107e8899845ad3d59bd9653f200f220920489ca2b5937696c3160203392a380f35b6020606492519162461bcd60e51b8352820152601960248201527f4552433732313a20617070726f766520746f2063616c6c6572000000000000006044820152fd5b8480fd5b50503461010b578160031936011261010b578051908260018054916103a083610dca565b8086529282811690811561043757506001146103db575b5050506103c9826101b1940383610d1a565b51918291602083526020830190610c42565b94508085527fb10e2d527612073b26eecdfd717e6a320cf44b4afac2b0732d9fcbe2b7fa0cf65b82861061041f575050506103c98260206101b195820101946103b7565b80546020878701810191909152909501948101610402565b6101b19750869350602092506103c994915060ff191682840152151560051b820101946103b7565b8391503461010b57602036600319011261010b576001600160a01b03610483610c82565b169081156104a05760208480858581526003845220549051908152f35b608490602085519162461bcd60e51b8352820152602960248201527f4552433732313a2061646472657373207a65726f206973206e6f7420612076616044820152683634b21037bbb732b960b91b6064820152fd5b828434610526576020366003190112610526575061051560209235610da4565b90516001600160a01b039091168152f35b80fd5b50503461010b576102a99061053d36610cb3565b9192519261054a84610ce8565b858452610ea4565b8334610526576102a961056436610cb3565b916105776105728433610f3f565b610e42565b611007565b83833461010b578160031936011261010b57600754916000199384841461098e5760018094019384600755331561094b576000858152600260205260409020546105d2906001600160a01b031615155b1561123a565b6000858152600260205260409020546105f5906001600160a01b031615156105cc565b3383526020956003875284842082815401905585845260028752848420336bffffffffffffffffffffffff60a01b8254161790558533857fddf252ad1be2c89b69c2b068fc378daa952ba7f163c4a11628f55a4df523b3ef8180a4845167ffffffffffffffff929060a0810184811182821017610938578752606681527f68747470733a2f2f617175616d6172696e652d726172652d66697265666c792d898201527f3735362e6d7970696e6174612e636c6f75642f697066732f516d58794d357a76818801527f7a463647686a637948754c6f54536d7376686a78455778525275595576376a4460608201526528b7bd311ab160d11b60808201526000888152600260205260409020546001600160a01b0316156108de5787865260068952868620928151918583116108cb5761072d8554610dca565b601f8111610885575b508a90601f8411600114610822579383949184928a95610817575b50501b9260031b1c19161790555b835191606083019182118383101761080457509082918452602381527f546865204e465420494420257320686173206265656e206d696e74656420746f868201526220257360e81b8482015283516107ed816107d38982019463038fd88960e31b8652606060248401526084830190610c42565b88604483015233606483015203601f198101835282610d1a565b51906a636f6e736f6c652e6c6f675afa5051908152f35b634e487b7160e01b845260419052602483fd5b015193508c80610751565b8589528b892092919084601f1981168b8f5b8983831061086b5750505010610853575b50505050811b01905561075f565b01519060f88460031b161c1916905589808080610845565b858701518955909701969485019488935090810190610834565b8589528b8920601f850160051c8101918d86106108c1575b601f0160051c019085905b8281106108b6575050610736565b8a81550185906108a8565b909150819061089d565b634e487b7160e01b885260418752602488fd5b865162461bcd60e51b81528086018a9052602e60248201527f45524337323155524953746f726167653a2055524920736574206f66206e6f6e60448201526d32bc34b9ba32b73a103a37b5b2b760911b6064820152608490fd5b634e487b7160e01b875260418652602487fd5b835162461bcd60e51b8152602081840181905260248201527f4552433732313a206d696e7420746f20746865207a65726f20616464726573736044820152606490fd5b634e487b7160e01b825260119052602490fd5b90503461021e578160031936011261021e576109bb610c82565b6024359290916001600160a01b03919082806109d687610da4565b16941693808514610ac257803314908115610aa3575b5015610a3b57848652602052842080546001600160a01b03191683179055610a1383610da4565b167f8c5be1e5ebec7d5bd14f71427d1e84f3dd0314c0f7b2291e5b200ac8c7c3b9258480a480f35b6020608492519162461bcd60e51b8352820152603d60248201527f4552433732313a20617070726f76652063616c6c6572206973206e6f7420746f60448201527f6b656e206f776e6572206f7220617070726f76656420666f7220616c6c0000006064820152fd5b90508652600560205281862033875260205260ff8287205416386109ec565b506020608492519162461bcd60e51b8352820152602160248201527f4552433732313a20617070726f76616c20746f2063757272656e74206f776e656044820152603960f91b6064820152fd5b828434610526576020366003190112610526575061051560209235610e04565b50503461010b578160031936011261010b57805190828054610b5081610dca565b808552916001918083169081156104375750600114610b7b575050506103c9826101b1940383610d1a565b80809650527f290decd9548b62a8d60345a988386fc84ba6bc95484008f6362f93160ef3e5635b828610610bbf575050506103c98260206101b195820101946103b7565b80546020878701810191909152909501948101610ba2565b84913461021e57602036600319011261021e573563ffffffff60e01b811680910361021e57602092506380ac58cd60e01b8114908115610c31575b8115610c20575b5015158152f35b6301ffc9a760e01b14905083610c19565b635b5e139f60e01b81149150610c12565b919082519283825260005b848110610c6e575050826000602080949584010152601f8019910116010190565b602081830181015184830182015201610c4d565b600435906001600160a01b0382168203610c9857565b600080fd5b602435906001600160a01b0382168203610c9857565b6060906003190112610c98576001600160a01b03906004358281168103610c9857916024359081168103610c98579060443590565b6020810190811067ffffffffffffffff821117610d0457604052565b634e487b7160e01b600052604160045260246000fd5b90601f8019910116810190811067ffffffffffffffff821117610d0457604052565b67ffffffffffffffff8111610d0457601f01601f191660200190565b15610d5f57565b60405162461bcd60e51b815260206004820152601860248201527f4552433732313a20696e76616c696420746f6b656e20494400000000000000006044820152606490fd5b6000908152600260205260409020546001600160a01b0316610dc7811515610d58565b90565b90600182811c92168015610dfa575b6020831014610de457565b634e487b7160e01b600052602260045260246000fd5b91607f1691610dd9565b600081815260026020526040902054610e27906001600160a01b03161515610d58565b6000908152600460205260409020546001600160a01b031690565b15610e4957565b60405162461bcd60e51b815260206004820152602d60248201527f4552433732313a2063616c6c6572206973206e6f7420746f6b656e206f776e6560448201526c1c881bdc88185c1c1c9bdd9959609a1b6064820152608490fd5b90610ec8939291610eb86105728433610f3f565b610ec3838383611007565b61111d565b15610ecf57565b60405162461bcd60e51b815280610ee860048201610eec565b0390fd5b60809060208152603260208201527f4552433732313a207472616e7366657220746f206e6f6e20455243373231526560408201527131b2b4bb32b91034b6b83632b6b2b73a32b960711b60608201520190565b906001600160a01b038080610f5384610da4565b16931691838314938415610f86575b508315610f70575b50505090565b610f7c91929350610e04565b1614388080610f6a565b909350600052600560205260406000208260005260205260ff604060002054169238610f62565b15610fb457565b60405162461bcd60e51b815260206004820152602560248201527f4552433732313a207472616e736665722066726f6d20696e636f72726563742060448201526437bbb732b960d91b6064820152608490fd5b9061102f9161101584610da4565b6001600160a01b0393918416928492909183168414610fad565b169182156110cc578161104c9161104586610da4565b1614610fad565b7fddf252ad1be2c89b69c2b068fc378daa952ba7f163c4a11628f55a4df523b3ef60008481526004602052604081206bffffffffffffffffffffffff60a01b9081815416905583825260036020526040822060001981540190558482526040822060018154019055858252600260205284604083209182541617905580a4565b60405162461bcd60e51b8152602060048201526024808201527f4552433732313a207472616e7366657220746f20746865207a65726f206164646044820152637265737360e01b6064820152608490fd5b92939190803b156112305761116f946040518092630a85bd0160e11b9485835233600484015260018060a01b03809816602484015260448301526080606483015281806020998a956084830190610c42565b03916000988991165af18491816111f0575b506111df575050503d6000146111d7573d61119b81610d3c565b906111a96040519283610d1a565b81528091833d92013e5b805191826111d45760405162461bcd60e51b815280610ee860048201610eec565b01fd5b5060606111b3565b6001600160e01b0319161492509050565b9091508581813d8311611229575b6112088183610d1a565b8101031261037857516001600160e01b031981168103610378579038611181565b503d6111fe565b5050915050600190565b1561124157565b60405162461bcd60e51b815260206004820152601c60248201527f4552433732313a20746f6b656e20616c7265616479206d696e746564000000006044820152606490fdfea2646970667358221220e92f54524cd3b58e6004c25eda183b974b3e807628a698aac11e11b28750e16f64736f6c63430008140033",
  "linkReferences": {},
  "deployedLinkReferences": {}
}