{
  "_format": "hh-sol-artifact-1",
  "contractName": "NFT",
  "sourceName": "contracts/NFT.sol",
  "abi": [
    {
      "inputs": [],
      "stateMutability": "nonpayable",
      "type": "constructor"
    },
    {
      "inputs": [
        {
          "internalType": "address",
          "name": "sender",
          "type": "address"
        },
        {
          "internalType": "uint256",
          "name": "tokenId",
          "type": "uint256"
        },
        {
          "internalType": "address",
          "name": "owner",
          "type": "address"
        }
      ],
      "name": "ERC721IncorrectOwner",
      "type": "error"
    },
    {
      "inputs": [
        {
          "internalType": "address",
          "name": "operator",
          "type": "address"
        },
        {
          "internalType": "uint256",
          "name": "tokenId",
          "type": "uint256"
        }
      ],
      "name": "ERC721InsufficientApproval",
      "type": "error"
    },
    {
      "inputs": [
        {
          "internalType": "address",
          "name": "approver",
          "type": "address"
        }
      ],
      "name": "ERC721InvalidApprover",
      "type": "error"
    },
    {
      "inputs": [
        {
          "internalType": "address",
          "name": "operator",
          "type": "address"
        }
      ],
      "name": "ERC721InvalidOperator",
      "type": "error"
    },
    {
      "inputs": [
        {
          "internalType": "address",
          "name": "owner",
          "type": "address"
        }
      ],
      "name": "ERC721InvalidOwner",
      "type": "error"
    },
    {
      "inputs": [
        {
          "internalType": "address",
          "name": "receiver",
          "type": "address"
        }
      ],
      "name": "ERC721InvalidReceiver",
      "type": "error"
    },
    {
      "inputs": [
        {
          "internalType": "address",
          "name": "sender",
          "type": "address"
        }
      ],
      "name": "ERC721InvalidSender",
      "type": "error"
    },
    {
      "inputs": [
        {
          "internalType": "uint256",
          "name": "tokenId",
          "type": "uint256"
        }
      ],
      "name": "ERC721NonexistentToken",
      "type": "error"
    },
    {
      "anonymous": false,
      "inputs": [
        {
          "indexed": true,
          "internalType": "address",
          "name": "owner",
          "type": "address"
        },
        {
          "indexed": true,
          "internalType": "address",
          "name": "approved",
          "type": "address"
        },
        {
          "indexed": true,
          "internalType": "uint256",
          "name": "tokenId",
          "type": "uint256"
        }
      ],
      "name": "Approval",
      "type": "event"
    },
    {
      "anonymous": false,
      "inputs": [
        {
          "indexed": true,
          "internalType": "address",
          "name": "owner",
          "type": "address"
        },
        {
          "indexed": true,
          "internalType": "address",
          "name": "operator",
          "type": "address"
        },
        {
          "indexed": false,
          "internalType": "bool",
          "name": "approved",
          "type": "bool"
        }
      ],
      "name": "ApprovalForAll",
      "type": "event"
    },
    {
      "anonymous": false,
      "inputs": [
        {
          "indexed": false,
          "internalType": "uint256",
          "name": "_fromTokenId",
          "type": "uint256"
        },
        {
          "indexed": false,
          "internalType": "uint256",
          "name": "_toTokenId",
          "type": "uint256"
        }
      ],
      "name": "BatchMetadataUpdate",
      "type": "event"
    },
    {
      "anonymous": false,
      "inputs": [
        {
          "indexed": false,
          "internalType": "uint256",
          "name": "_tokenId",
          "type": "uint256"
        }
      ],
      "name": "MetadataUpdate",
      "type": "event"
    },
    {
      "anonymous": false,
      "inputs": [
        {
          "indexed": true,
          "internalType": "address",
          "name": "from",
          "type": "address"
        },
        {
          "indexed": true,
          "internalType": "address",
          "name": "to",
          "type": "address"
        },
        {
          "indexed": true,
          "internalType": "uint256",
          "name": "tokenId",
          "type": "uint256"
        }
      ],
      "name": "Transfer",
      "type": "event"
    },
    {
      "inputs": [
        {
          "internalType": "address",
          "name": "to",
          "type": "address"
        },
        {
          "internalType": "uint256",
          "name": "tokenId",
          "type": "uint256"
        }
      ],
      "name": "approve",
      "outputs": [],
      "stateMutability": "nonpayable",
      "type": "function"
    },
    {
      "inputs": [
        {
          "internalType": "address",
          "name": "owner",
          "type": "address"
        }
      ],
      "name": "balanceOf",
      "outputs": [
        {
          "internalType": "uint256",
          "name": "",
          "type": "uint256"
        }
      ],
      "stateMutability": "view",
      "type": "function"
    },
    {
      "inputs": [
        {
          "internalType": "uint256",
          "name": "tokenId",
          "type": "uint256"
        }
      ],
      "name": "getApproved",
      "outputs": [
        {
          "internalType": "address",
          "name": "",
          "type": "address"
        }
      ],
      "stateMutability": "view",
      "type": "function"
    },
    {
      "inputs": [
        {
          "internalType": "address",
          "name": "owner",
          "type": "address"
        },
        {
          "internalType": "address",
          "name": "operator",
          "type": "address"
        }
      ],
      "name": "isApprovedForAll",
      "outputs": [
        {
          "internalType": "bool",
          "name": "",
          "type": "bool"
        }
      ],
      "stateMutability": "view",
      "type": "function"
    },
    {
      "inputs": [],
      "name": "mintNFT",
      "outputs": [
        {
          "internalType": "uint256",
          "name": "",
          "type": "uint256"
        }
      ],
      "stateMutability": "nonpayable",
      "type": "function"
    },
    {
      "inputs": [],
      "name": "name",
      "outputs": [
        {
          "internalType": "string",
          "name": "",
          "type": "string"
        }
      ],
      "stateMutability": "view",
      "type": "function"
    },
    {
      "inputs": [
        {
          "internalType": "uint256",
          "name": "tokenId",
          "type": "uint256"
        }
      ],
      "name": "ownerOf",
      "outputs": [
        {
          "internalType": "address",
          "name": "",
          "type": "address"
        }
      ],
      "stateMutability": "view",
      "type": "function"
    },
    {
      "inputs": [
        {
          "internalType": "address",
          "name": "from",
          "type": "address"
        },
        {
          "internalType": "address",
          "name": "to",
          "type": "address"
        },
        {
          "internalType": "uint256",
          "name": "tokenId",
          "type": "uint256"
        }
      ],
      "name": "safeTransferFrom",
      "outputs": [],
      "stateMutability": "nonpayable",
      "type": "function"
    },
    {
      "inputs": [
        {
          "internalType": "address",
          "name": "from",
          "type": "address"
        },
        {
          "internalType": "address",
          "name": "to",
          "type": "address"
        },
        {
          "internalType": "uint256",
          "name": "tokenId",
          "type": "uint256"
        },
        {
          "internalType": "bytes",
          "name": "data",
          "type": "bytes"
        }
      ],
      "name": "safeTransferFrom",
      "outputs": [],
      "stateMutability": "nonpayable",
      "type": "function"
    },
    {
      "inputs": [
        {
          "internalType": "address",
          "name": "operator",
          "type": "address"
        },
        {
          "internalType": "bool",
          "name": "approved",
          "type": "bool"
        }
      ],
      "name": "setApprovalForAll",
      "outputs": [],
      "stateMutability": "nonpayable",
      "type": "function"
    },
    {
      "inputs": [
        {
          "internalType": "bytes4",
          "name": "interfaceId",
          "type": "bytes4"
        }
      ],
      "name": "supportsInterface",
      "outputs": [
        {
          "internalType": "bool",
          "name": "",
          "type": "bool"
        }
      ],
      "stateMutability": "view",
      "type": "function"
    },
    {
      "inputs": [],
      "name": "symbol",
      "outputs": [
        {
          "internalType": "string",
          "name": "",
          "type": "string"
        }
      ],
      "stateMutability": "view",
      "type": "function"
    },
    {
      "inputs": [
        {
          "internalType": "uint256",
          "name": "tokenId",
          "type": "uint256"
        }
      ],
      "name": "tokenURI",
      "outputs": [
        {
          "internalType": "string",
          "name": "",
          "type": "string"
        }
      ],
      "stateMutability": "view",
      "type": "function"
    },
    {
      "inputs": [
        {
          "internalType": "address",
          "name": "from",
          "type": "address"
        },
        {
          "internalType": "address",
          "name": "to",
          "type": "address"
        },
        {
          "internalType": "uint256",
          "name": "tokenId",
          "type": "uint256"
        }
      ],
      "name": "transferFrom",
      "outputs": [],
      "stateMutability": "nonpayable",
      "type": "function"
    }
  ],
  "bytecode": "0x60803462000315576001600160401b039060409080820183811182821017620002ff578252600e81526020926d2b34ba30b634b5a13aba32b934b760911b84830152825183810181811083821117620002ff5784526007815266564954414c494b60c81b85820152825190828211620002ff5760008054926001958685811c95168015620002f4575b89861014620002e0578190601f958681116200028d575b508990868311600114620002295784926200021d575b5050600019600383901b1c191690861b1781555b8151938411620002095784548581811c91168015620001fe575b88821014620001ea57838111620001a2575b50869284116001146200013c5783949596509262000130575b5050600019600383901b1c191690821b1790555b51610ee490816200031b8239f35b0151905038806200010e565b9190601f1984169685845280842093905b8882106200018a575050838596971062000170575b505050811b01905562000122565b015160001960f88460031b161c1916905538808062000162565b8087859682949686015181550195019301906200014d565b8582528782208480870160051c8201928a8810620001e0575b0160051c019086905b828110620001d4575050620000f5565b838155018690620001c4565b92508192620001bb565b634e487b7160e01b82526022600452602482fd5b90607f1690620000e3565b634e487b7160e01b81526041600452602490fd5b015190503880620000b5565b8480528a85208994509190601f198416865b8d8282106200027657505084116200025c575b505050811b018155620000c9565b015160001960f88460031b161c191690553880806200024e565b8385015186558c979095019493840193016200023b565b9091508380528984208680850160051c8201928c8610620002d6575b918a91869594930160051c01915b828110620002c75750506200009f565b8681558594508a9101620002b7565b92508192620002a9565b634e487b7160e01b83526022600452602483fd5b94607f169462000088565b634e487b7160e01b600052604160045260246000fd5b600080fdfe608060408181526004918236101561001657600080fd5b600092833560e01c91826301ffc9a7146109b05750816306fdde0314610908578163081812fc146108cc578163095ea7b3146107ef57816314f710fe146104e257816323b872dd146104ca57816342842e0e146104a15781636352211e1461047057816370a082311461041857816395d89b4114610335578163a22cb46514610293578163b88d4fde14610209578163c87b56dd1461010f575063e985e9c5146100bf57600080fd5b3461010b578060031936011261010b5760ff816020936100dd610a75565b6100e5610a90565b6001600160a01b0391821683526005875283832091168252855220549151911615158152f35b5080fd5b919050346102055760209182600319360112610201573561012f81610e73565b5083526006825280832092815180948290805461014b81610b4b565b918285526001918883821691826000146101da57505060011461019c575b50505061019893929161017d910386610b0d565b815161018881610adb565b5251928284938452830190610a35565b0390f35b8552868520879350859291905b8284106101c2575050508201018161017d610198610169565b8054848b0186015289955088949093019281016101a9565b60ff19168782015293151560051b8601909301935084925061017d91506101989050610169565b8380fd5b8280fd5b9190503461020557608036600319011261020557610225610a75565b61022d610a90565b846064359467ffffffffffffffff861161010b573660238701121561010b578501359461026561025c87610b2f565b95519586610b0d565b858552366024878301011161010b578561029096602460209301838801378501015260443591610d24565b80f35b919050346102055780600319360112610205576102ae610a75565b9060243591821515809303610331576001600160a01b031692831561031c5750338452600560205280842083855260205280842060ff1981541660ff8416179055519081527f17307eab39ab6107e8899845ad3d59bd9653f200f220920489ca2b5937696c3160203392a380f35b836024925191630b61174360e31b8352820152fd5b8480fd5b50503461010b578160031936011261010b5780519082600180549161035983610b4b565b808652928281169081156103f05750600114610394575b50505061038282610198940383610b0d565b51918291602083526020830190610a35565b94508085527fb10e2d527612073b26eecdfd717e6a320cf44b4afac2b0732d9fcbe2b7fa0cf65b8286106103d8575050506103828260206101989582010194610370565b805460208787018101919091529095019481016103bb565b61019897508693506020925061038294915060ff191682840152151560051b82010194610370565b82843461046d57602036600319011261046d576001600160a01b0361043b610a75565b169283156104585750806020938392526003845220549051908152f35b91516322718ad960e21b815291820152602490fd5b80fd5b82843461046d57602036600319011261046d575061049060209235610e73565b90516001600160a01b039091168152f35b50503461010b57610290906104b536610aa6565b919251926104c284610adb565b858452610d24565b833461046d576102906104dc36610aa6565b91610b85565b83833461010b578160031936011261010b5760075460001993908481146107dc576001809101938460075533156107c6578481526020956002875260018060a01b038583205416868115159182610795575b3380865260038b5288862080548801905582865260028b5288862080546001600160a01b03191682179055907fddf252ad1be2c89b69c2b068fc378daa952ba7f163c4a11628f55a4df523b3ef8680a461077e57845167ffffffffffffffff929060a081018481118282101761076b578752606681527f68747470733a2f2f617175616d6172696e652d726172652d66697265666c792d898201527f3735362e6d7970696e6174612e636c6f75642f697066732f516d58794d357a76878201527f7a463647686a637948754c6f54536d7376686a78455778525275595576376a4460608201526528b7bd311ab160d11b60808201528782526006895286822095815194851161075857506106488654610b4b565b601f8111610712575b508891601f85116001146106b257918495918593956106a7575b50501b9260031b1c19161790555b7ff8e1a15aba9398e019f0b49df1a4fde98ee17ae345cb5f6b5e2c27f5033e8ce7838251848152a151908152f35b01519350898061066b565b92919084601f1981168886528b8620955b8c898383106106fb57505050106106e3575b50505050811b019055610679565b01519060f88460031b161c19169055868080806106d5565b8686015189559097019694850194889350016106c3565b868352898320601f860160051c8101918b871061074e575b601f0160051c019086905b828110610743575050610651565b848155018690610735565b909150819061072a565b634e487b7160e01b835260419052602482fd5b634e487b7160e01b835260418752602483fd5b84516339e3563760e11b8152808501839052602490fd5b600082815260046020526040902080546001600160a01b031916905580855260038a52878520848154019055610534565b90506024925191633250574960e11b8352820152fd5b634e487b7160e01b845260118252602484fd5b9190503461020557806003193601126102055761080a610a75565b9160243561081781610e73565b331515806108b9575b80610890575b61087a576001600160a01b039485169482918691167f8c5be1e5ebec7d5bd14f71427d1e84f3dd0314c0f7b2291e5b200ac8c7c3b9258880a48452602052822080546001600160a01b031916909117905580f35b835163a9fbf51f60e01b81523381850152602490fd5b506001600160a01b03811686526005602090815284872033885290528386205460ff1615610826565b506001600160a01b038116331415610820565b905034610205576020366003190112610205579182602093356108ee81610e73565b50825283528190205490516001600160a01b039091168152f35b50503461010b578160031936011261010b5780519082805461092981610b4b565b808552916001918083169081156103f057506001146109545750505061038282610198940383610b0d565b80809650527f290decd9548b62a8d60345a988386fc84ba6bc95484008f6362f93160ef3e5635b828610610998575050506103828260206101989582010194610370565b8054602087870181019190915290950194810161097b565b849134610205576020366003190112610205573563ffffffff60e01b81168091036102055760209250632483248360e11b81149081156109f2575b5015158152f35b6380ac58cd60e01b811491508115610a24575b8115610a13575b50836109eb565b6301ffc9a760e01b14905083610a0c565b635b5e139f60e01b81149150610a05565b919082519283825260005b848110610a61575050826000602080949584010152601f8019910116010190565b602081830181015184830182015201610a40565b600435906001600160a01b0382168203610a8b57565b600080fd5b602435906001600160a01b0382168203610a8b57565b6060906003190112610a8b576001600160a01b03906004358281168103610a8b57916024359081168103610a8b579060443590565b6020810190811067ffffffffffffffff821117610af757604052565b634e487b7160e01b600052604160045260246000fd5b90601f8019910116810190811067ffffffffffffffff821117610af757604052565b67ffffffffffffffff8111610af757601f01601f191660200190565b90600182811c92168015610b7b575b6020831014610b6557565b634e487b7160e01b600052602260045260246000fd5b91607f1691610b5a565b6001600160a01b039182169290918315610d0b57600092828452826020956002875260409684888820541696879133151580610c75575b509060027fddf252ad1be2c89b69c2b068fc378daa952ba7f163c4a11628f55a4df523b3ef9284610c42575b858352600381528b8320805460010190558683525289812080546001600160a01b0319168517905580a41692838303610c215750505050565b6064945051926364283d7b60e01b8452600484015260248301526044820152fd5b600087815260046020526040902080546001600160a01b0319169055848352600381528b83208054600019019055610be8565b91939450915080610cca575b15610c9157859291879138610bbc565b878688610cae576024915190637e27328960e01b82526004820152fd5b604491519063177e802f60e01b82523360048301526024820152fd5b503387148015610cef575b80610c815750858252600481523385898420541614610c81565b5086825260058152878220338352815260ff8883205416610cd5565b604051633250574960e11b815260006004820152602490fd5b610d2f838383610b85565b813b610d3c575b50505050565b604051630a85bd0160e11b8082523360048301526001600160a01b03928316602483015260448201949094526080606482015260209592909116939092908390610d8a906084830190610a35565b039285816000958187895af1849181610e33575b50610dfe575050503d600014610df6573d610db881610b2f565b90610dc66040519283610b0d565b81528091843d92013e5b80519283610df157604051633250574960e11b815260048101849052602490fd5b019050fd5b506060610dd0565b919450915063ffffffff60e01b1603610e1b575038808080610d36565b60249060405190633250574960e11b82526004820152fd5b9091508681813d8311610e6c575b610e4b8183610b0d565b8101031261033157516001600160e01b031981168103610331579038610d9e565b503d610e41565b6000818152600260205260409020546001600160a01b0316908115610e96575090565b60249060405190637e27328960e01b82526004820152fdfea2646970667358221220ff21380ee7c5dade7d48787b9e22feae0c3e281886b9c50292107c61d8c561a164736f6c63430008140033",
  "linkReferences": {},
  "deployedLinkReferences": {}
}