{
  "_format": "hh-sol-artifact-1",
  "contractName": "VitalikNFT",
  "sourceName": "contracts/NFT.sol",
  "abi": [
    {
      "inputs": [],
      "stateMutability": "nonpayable",
      "type": "constructor"
    },
    {
      "inputs": [
        {
          "internalType": "address",
          "name": "sender",
          "type": "address"
        },
        {
          "internalType": "uint256",
          "name": "tokenId",
          "type": "uint256"
        },
        {
          "internalType": "address",
          "name": "owner",
          "type": "address"
        }
      ],
      "name": "ERC721IncorrectOwner",
      "type": "error"
    },
    {
      "inputs": [
        {
          "internalType": "address",
          "name": "operator",
          "type": "address"
        },
        {
          "internalType": "uint256",
          "name": "tokenId",
          "type": "uint256"
        }
      ],
      "name": "ERC721InsufficientApproval",
      "type": "error"
    },
    {
      "inputs": [
        {
          "internalType": "address",
          "name": "approver",
          "type": "address"
        }
      ],
      "name": "ERC721InvalidApprover",
      "type": "error"
    },
    {
      "inputs": [
        {
          "internalType": "address",
          "name": "operator",
          "type": "address"
        }
      ],
      "name": "ERC721InvalidOperator",
      "type": "error"
    },
    {
      "inputs": [
        {
          "internalType": "address",
          "name": "owner",
          "type": "address"
        }
      ],
      "name": "ERC721InvalidOwner",
      "type": "error"
    },
    {
      "inputs": [
        {
          "internalType": "address",
          "name": "receiver",
          "type": "address"
        }
      ],
      "name": "ERC721InvalidReceiver",
      "type": "error"
    },
    {
      "inputs": [
        {
          "internalType": "address",
          "name": "sender",
          "type": "address"
        }
      ],
      "name": "ERC721InvalidSender",
      "type": "error"
    },
    {
      "inputs": [
        {
          "internalType": "uint256",
          "name": "tokenId",
          "type": "uint256"
        }
      ],
      "name": "ERC721NonexistentToken",
      "type": "error"
    },
    {
      "inputs": [
        {
          "internalType": "address",
          "name": "owner",
          "type": "address"
        }
      ],
      "name": "OwnableInvalidOwner",
      "type": "error"
    },
    {
      "inputs": [
        {
          "internalType": "address",
          "name": "account",
          "type": "address"
        }
      ],
      "name": "OwnableUnauthorizedAccount",
      "type": "error"
    },
    {
      "anonymous": false,
      "inputs": [
        {
          "indexed": true,
          "internalType": "address",
          "name": "owner",
          "type": "address"
        },
        {
          "indexed": true,
          "internalType": "address",
          "name": "approved",
          "type": "address"
        },
        {
          "indexed": true,
          "internalType": "uint256",
          "name": "tokenId",
          "type": "uint256"
        }
      ],
      "name": "Approval",
      "type": "event"
    },
    {
      "anonymous": false,
      "inputs": [
        {
          "indexed": true,
          "internalType": "address",
          "name": "owner",
          "type": "address"
        },
        {
          "indexed": true,
          "internalType": "address",
          "name": "operator",
          "type": "address"
        },
        {
          "indexed": false,
          "internalType": "bool",
          "name": "approved",
          "type": "bool"
        }
      ],
      "name": "ApprovalForAll",
      "type": "event"
    },
    {
      "anonymous": false,
      "inputs": [
        {
          "indexed": false,
          "internalType": "uint256",
          "name": "_fromTokenId",
          "type": "uint256"
        },
        {
          "indexed": false,
          "internalType": "uint256",
          "name": "_toTokenId",
          "type": "uint256"
        }
      ],
      "name": "BatchMetadataUpdate",
      "type": "event"
    },
    {
      "anonymous": false,
      "inputs": [
        {
          "indexed": false,
          "internalType": "uint256",
          "name": "_tokenId",
          "type": "uint256"
        }
      ],
      "name": "MetadataUpdate",
      "type": "event"
    },
    {
      "anonymous": false,
      "inputs": [
        {
          "indexed": true,
          "internalType": "address",
          "name": "previousOwner",
          "type": "address"
        },
        {
          "indexed": true,
          "internalType": "address",
          "name": "newOwner",
          "type": "address"
        }
      ],
      "name": "OwnershipTransferred",
      "type": "event"
    },
    {
      "anonymous": false,
      "inputs": [
        {
          "indexed": true,
          "internalType": "address",
          "name": "from",
          "type": "address"
        },
        {
          "indexed": true,
          "internalType": "address",
          "name": "to",
          "type": "address"
        },
        {
          "indexed": true,
          "internalType": "uint256",
          "name": "tokenId",
          "type": "uint256"
        }
      ],
      "name": "Transfer",
      "type": "event"
    },
    {
      "inputs": [
        {
          "internalType": "address",
          "name": "to",
          "type": "address"
        },
        {
          "internalType": "uint256",
          "name": "tokenId",
          "type": "uint256"
        }
      ],
      "name": "approve",
      "outputs": [],
      "stateMutability": "nonpayable",
      "type": "function"
    },
    {
      "inputs": [
        {
          "internalType": "address",
          "name": "owner",
          "type": "address"
        }
      ],
      "name": "balanceOf",
      "outputs": [
        {
          "internalType": "uint256",
          "name": "",
          "type": "uint256"
        }
      ],
      "stateMutability": "view",
      "type": "function"
    },
    {
      "inputs": [
        {
          "internalType": "uint256",
          "name": "tokenId",
          "type": "uint256"
        }
      ],
      "name": "getApproved",
      "outputs": [
        {
          "internalType": "address",
          "name": "",
          "type": "address"
        }
      ],
      "stateMutability": "view",
      "type": "function"
    },
    {
      "inputs": [],
      "name": "getCurrentTokenId",
      "outputs": [
        {
          "internalType": "uint256",
          "name": "",
          "type": "uint256"
        }
      ],
      "stateMutability": "view",
      "type": "function"
    },
    {
      "inputs": [
        {
          "internalType": "address",
          "name": "owner",
          "type": "address"
        },
        {
          "internalType": "address",
          "name": "operator",
          "type": "address"
        }
      ],
      "name": "isApprovedForAll",
      "outputs": [
        {
          "internalType": "bool",
          "name": "",
          "type": "bool"
        }
      ],
      "stateMutability": "view",
      "type": "function"
    },
    {
      "inputs": [],
      "name": "mintVitalikNFT",
      "outputs": [],
      "stateMutability": "nonpayable",
      "type": "function"
    },
    {
      "inputs": [],
      "name": "name",
      "outputs": [
        {
          "internalType": "string",
          "name": "",
          "type": "string"
        }
      ],
      "stateMutability": "view",
      "type": "function"
    },
    {
      "inputs": [],
      "name": "owner",
      "outputs": [
        {
          "internalType": "address",
          "name": "",
          "type": "address"
        }
      ],
      "stateMutability": "view",
      "type": "function"
    },
    {
      "inputs": [
        {
          "internalType": "uint256",
          "name": "tokenId",
          "type": "uint256"
        }
      ],
      "name": "ownerOf",
      "outputs": [
        {
          "internalType": "address",
          "name": "",
          "type": "address"
        }
      ],
      "stateMutability": "view",
      "type": "function"
    },
    {
      "inputs": [],
      "name": "renounceOwnership",
      "outputs": [],
      "stateMutability": "nonpayable",
      "type": "function"
    },
    {
      "inputs": [
        {
          "internalType": "address",
          "name": "from",
          "type": "address"
        },
        {
          "internalType": "address",
          "name": "to",
          "type": "address"
        },
        {
          "internalType": "uint256",
          "name": "tokenId",
          "type": "uint256"
        }
      ],
      "name": "safeTransferFrom",
      "outputs": [],
      "stateMutability": "nonpayable",
      "type": "function"
    },
    {
      "inputs": [
        {
          "internalType": "address",
          "name": "from",
          "type": "address"
        },
        {
          "internalType": "address",
          "name": "to",
          "type": "address"
        },
        {
          "internalType": "uint256",
          "name": "tokenId",
          "type": "uint256"
        },
        {
          "internalType": "bytes",
          "name": "data",
          "type": "bytes"
        }
      ],
      "name": "safeTransferFrom",
      "outputs": [],
      "stateMutability": "nonpayable",
      "type": "function"
    },
    {
      "inputs": [
        {
          "internalType": "address",
          "name": "operator",
          "type": "address"
        },
        {
          "internalType": "bool",
          "name": "approved",
          "type": "bool"
        }
      ],
      "name": "setApprovalForAll",
      "outputs": [],
      "stateMutability": "nonpayable",
      "type": "function"
    },
    {
      "inputs": [
        {
          "internalType": "bytes4",
          "name": "interfaceId",
          "type": "bytes4"
        }
      ],
      "name": "supportsInterface",
      "outputs": [
        {
          "internalType": "bool",
          "name": "",
          "type": "bool"
        }
      ],
      "stateMutability": "view",
      "type": "function"
    },
    {
      "inputs": [],
      "name": "symbol",
      "outputs": [
        {
          "internalType": "string",
          "name": "",
          "type": "string"
        }
      ],
      "stateMutability": "view",
      "type": "function"
    },
    {
      "inputs": [
        {
          "internalType": "uint256",
          "name": "tokenId",
          "type": "uint256"
        }
      ],
      "name": "tokenURI",
      "outputs": [
        {
          "internalType": "string",
          "name": "",
          "type": "string"
        }
      ],
      "stateMutability": "view",
      "type": "function"
    },
    {
      "inputs": [
        {
          "internalType": "address",
          "name": "from",
          "type": "address"
        },
        {
          "internalType": "address",
          "name": "to",
          "type": "address"
        },
        {
          "internalType": "uint256",
          "name": "tokenId",
          "type": "uint256"
        }
      ],
      "name": "transferFrom",
      "outputs": [],
      "stateMutability": "nonpayable",
      "type": "function"
    },
    {
      "inputs": [
        {
          "internalType": "address",
          "name": "newOwner",
          "type": "address"
        }
      ],
      "name": "transferOwnership",
      "outputs": [],
      "stateMutability": "nonpayable",
      "type": "function"
    }
  ],
  "bytecode": "0x60803462000376576001600160401b039060408181018381118382101762000360578152600a825260209169159a5d185b1a5ad3919560b21b838201528151938285018581108282111762000360578352600385526215925560ea1b84860152815181811162000360576000948554916001948584811c9416801562000355575b8385101462000341578190601f94858111620002ee575b5083908583116001146200028a5789926200027e575b5050600019600383901b1c191690851b1786555b86519283116200026a5783548481811c911680156200025f575b828210146200024b5782811162000203575b50809183116001146200019c57508495829394959262000190575b5050600019600383901b1c191690821b1790555b3315620001785760078054336001600160a01b03198216811790925591519290916001600160a01b0316907f8be0079c531659141344cd1fd0a4f28419497f9722a3daafe3b4186f6b6457e09080a36111d390816200037c8239f35b51631e4fbdf760e01b81526004810191909152602490fd5b01519050388062000108565b90601f198316968487528287209287905b898210620001eb575050838596979810620001d1575b505050811b0190556200011c565b015160001960f88460031b161c19169055388080620001c3565b808785968294968601518155019501930190620001ad565b8487528187208380860160051c82019284871062000241575b0160051c019085905b82811062000235575050620000ed565b88815501859062000225565b925081926200021c565b634e487b7160e01b87526022600452602487fd5b90607f1690620000db565b634e487b7160e01b86526041600452602486fd5b015190503880620000ad565b898052848a208894509190601f1984168b5b87828210620002d75750508411620002bd575b505050811b018655620000c1565b015160001960f88460031b161c19169055388080620002af565b8385015186558b979095019493840193016200029c565b9091508880528389208580850160051c82019286861062000337575b918991869594930160051c01915b8281106200032857505062000097565b8b815585945089910162000318565b925081926200030a565b634e487b7160e01b88526022600452602488fd5b93607f169362000080565b634e487b7160e01b600052604160045260246000fd5b600080fdfe6080604081815260048036101561001557600080fd5b600092833560e01c90816301ffc9a714610c765750806306fdde0314610bce578063081812fc14610b93578063095ea7b314610ab757806323b872dd14610a9f57806342842e0e14610a705780635618923614610a515780636352211e14610a2057806369cb3ca6146105b957806370a0823114610564578063715018a6146105045780638da5cb5b146104db57806395d89b41146103f8578063a22cb46514610357578063b88d4fde146102c2578063c87b56dd146101cd578063e985e9c51461017b5763f2fde38b146100e957600080fd5b3461017757602036600319011261017757610102610d3c565b9061010b610e12565b6001600160a01b03918216928315610161575050600754826bffffffffffffffffffffffff60a01b821617600755167f8be0079c531659141344cd1fd0a4f28419497f9722a3daafe3b4186f6b6457e08380a380f35b51631e4fbdf760e01b8152908101849052602490fd5b8280fd5b5050346101c957806003193601126101c95760ff8160209361019b610d3c565b6101a3610d57565b6001600160a01b0391821683526005875283832091168252855220549151911615158152f35b5080fd5b50903461017757602091826003193601126102be57356101ec81611017565b5083526006825280832092815180948290805461020881610e3e565b91828552600191888382169182600014610297575050600114610259575b50505061025593929161023a910386610dd4565b815161024581610da2565b5251928284938452830190610cfc565b0390f35b8552868520879350859291905b82841061027f575050508201018161023a610255610226565b8054848b018601528995508894909301928101610266565b60ff19168782015293151560051b8601909301935084925061023a91506102559050610226565b8380fd5b509034610177576080366003190112610177576102dd610d3c565b6102e5610d57565b60443591856064359567ffffffffffffffff87116101c957366023880112156101c9578601359561032161031888610df6565b96519687610dd4565b86865236602488830101116101c9578661035497602460209301838901378601015261034e838383610e78565b33611052565b80f35b509034610177578060031936011261017757610371610d3c565b90602435918215158093036103f4576001600160a01b03169283156103df5750338452600560205280842083855260205280842060ff1981541660ff8416179055519081527f17307eab39ab6107e8899845ad3d59bd9653f200f220920489ca2b5937696c3160203392a380f35b836024925191630b61174360e31b8352820152fd5b8480fd5b5050346101c957816003193601126101c95780519082600180549161041c83610e3e565b808652928281169081156104b35750600114610457575b50505061044582610255940383610dd4565b51918291602083526020830190610cfc565b94508085527fb10e2d527612073b26eecdfd717e6a320cf44b4afac2b0732d9fcbe2b7fa0cf65b82861061049b575050506104458260206102559582010194610433565b8054602087870181019190915290950194810161047e565b61025597508693506020925061044594915060ff191682840152151560051b82010194610433565b5050346101c957816003193601126101c95760075490516001600160a01b039091168152602090f35b833461056157806003193601126105615761051d610e12565b600780546001600160a01b0319811690915581906001600160a01b03167f8be0079c531659141344cd1fd0a4f28419497f9722a3daafe3b4186f6b6457e08280a380f35b80fd5b509134610561576020366003190112610561576001600160a01b03610587610d3c565b169283156105a45750806020938392526003845220549051908152f35b91516322718ad960e21b815291820152602490fd5b508290346101c957816003193601126101c9576105d4610e12565b600854908351916105e483610da2565b8383523315610a095780845260026020908152858520546001600160a01b031693909190841515806109d6575b33875260038452828888209660019788815401905581895260028652898920336bffffffffffffffffffffffff60a01b82541617905533907fddf252ad1be2c89b69c2b068fc378daa952ba7f163c4a11628f55a4df523b3ef8a80a46109bf57333b6108a2575b5085519567ffffffffffffffff60a088018181118982101761088f578252606688527f68747470733a2f2f617175616d6172696e652d726172652d66697265666c792d848901527f3735362e6d7970696e6174612e636c6f75642f697066732f516d58794d357a76828901527f7a463647686a637948754c6f54536d7376686a78455778525275595576376a4460608901526528b7bd311ab160d11b60808901528287526006845281872090885190811161088f576107378254610e3e565b601f8111610849575b5084601f82116001146107c7578190899a7ff8e1a15aba9398e019f0b49df1a4fde98ee17ae345cb5f6b5e2c27f5033e8ce798999a926107bc575b5050600019600383901b1c191690881b1790555b51908152a16008549060001982146107a957500160085580f35b634e487b7160e01b845260119052602483fd5b015190508a8061077b565b82895285892099601f1983168a5b818110610834575091899a9b91847ff8e1a15aba9398e019f0b49df1a4fde98ee17ae345cb5f6b5e2c27f5033e8ce79a9b95941061081b575b505050811b01905561078f565b015160001960f88460031b161c191690558a808061080e565b838301518d559b8a019b9288019288016107d5565b828952858920601f830160051c810191878410610885575b601f0160051c019088905b82811061087a575050610740565b8a815501889061086c565b9091508190610861565b634e487b7160e01b885260418652602488fd5b86949296959395518781806108de630a85bd0160e11b95868352338c840152896024840152876044840152608060648401526084830190610cfc565b038188335af185918161097b575b5061094a57505050503d600014610942573d61090781610df6565b9061091484519283610dd4565b81528091853d92013e5b8051938461093c578251633250574960e11b81523381860152602490fd5b84925001fd5b50606061091e565b63ffffffff60e0989496989795971b16036109655786610678565b8551633250574960e11b81523381850152602490fd5b9091508881813d83116109b8575b6109938183610dd4565b810103126109b457516001600160e01b0319811681036109b45790896108ec565b8580fd5b503d610989565b86516339e3563760e11b8152808501879052602490fd5b600083815260046020526040902080546001600160a01b0319169055858752600384528787208054600019019055610611565b8451633250574960e11b8152808301859052602490fd5b5091346105615760203660031901126105615750610a4060209235611017565b90516001600160a01b039091168152f35b5050346101c957816003193601126101c9576020906008549051908152f35b5050346101c95761035490610a8436610d6d565b91925192610a9184610da2565b85845261034e838383610e78565b833461056157610354610ab136610d6d565b91610e78565b509034610177578060031936011261017757610ad1610d3c565b91602435610ade81611017565b33151580610b80575b80610b57575b610b41576001600160a01b039485169482918691167f8c5be1e5ebec7d5bd14f71427d1e84f3dd0314c0f7b2291e5b200ac8c7c3b9258880a48452602052822080546001600160a01b031916909117905580f35b835163a9fbf51f60e01b81523381850152602490fd5b506001600160a01b03811686526005602090815284872033885290528386205460ff1615610aed565b506001600160a01b038116331415610ae7565b503461017757602036600319011261017757918260209335610bb481611017565b50825283528190205490516001600160a01b039091168152f35b5050346101c957816003193601126101c957805190828054610bef81610e3e565b808552916001918083169081156104b35750600114610c1a5750505061044582610255940383610dd4565b80809650527f290decd9548b62a8d60345a988386fc84ba6bc95484008f6362f93160ef3e5635b828610610c5e575050506104458260206102559582010194610433565b80546020878701810191909152909501948101610c41565b92505034610177576020366003190112610177573563ffffffff60e01b81168091036101775760209250632483248360e11b8114908115610cb9575b5015158152f35b6380ac58cd60e01b811491508115610ceb575b8115610cda575b5038610cb2565b6301ffc9a760e01b14905038610cd3565b635b5e139f60e01b81149150610ccc565b919082519283825260005b848110610d28575050826000602080949584010152601f8019910116010190565b602081830181015184830182015201610d07565b600435906001600160a01b0382168203610d5257565b600080fd5b602435906001600160a01b0382168203610d5257565b6060906003190112610d52576001600160a01b03906004358281168103610d5257916024359081168103610d52579060443590565b6020810190811067ffffffffffffffff821117610dbe57604052565b634e487b7160e01b600052604160045260246000fd5b90601f8019910116810190811067ffffffffffffffff821117610dbe57604052565b67ffffffffffffffff8111610dbe57601f01601f191660200190565b6007546001600160a01b03163303610e2657565b60405163118cdaa760e01b8152336004820152602490fd5b90600182811c92168015610e6e575b6020831014610e5857565b634e487b7160e01b600052602260045260246000fd5b91607f1691610e4d565b6001600160a01b039182169290918315610ffe57600092828452826020956002875260409684888820541696879133151580610f68575b509060027fddf252ad1be2c89b69c2b068fc378daa952ba7f163c4a11628f55a4df523b3ef9284610f35575b858352600381528b8320805460010190558683525289812080546001600160a01b0319168517905580a41692838303610f145750505050565b6064945051926364283d7b60e01b8452600484015260248301526044820152fd5b600087815260046020526040902080546001600160a01b0319169055848352600381528b83208054600019019055610edb565b91939450915080610fbd575b15610f8457859291879138610eaf565b878688610fa1576024915190637e27328960e01b82526004820152fd5b604491519063177e802f60e01b82523360048301526024820152fd5b503387148015610fe2575b80610f745750858252600481523385898420541614610f74565b5086825260058152878220338352815260ff8883205416610fc8565b604051633250574960e11b815260006004820152602490fd5b6000818152600260205260409020546001600160a01b031690811561103a575090565b60249060405190637e27328960e01b82526004820152fd5b909192833b611063575b5050505050565b604051630a85bd0160e11b8082526001600160a01b0393841660048301529383166024820152604481019190915260806064820152602095919093169390919083906110b3906084830190610cfc565b039285816000958187895af184918161115d575b50611127575050503d60001461111f573d6110e181610df6565b906110ef6040519283610dd4565b81528091843d92013e5b8051928361111a57604051633250574960e11b815260048101849052602490fd5b019050fd5b5060606110f9565b919450915063ffffffff60e01b16036111455750388080808061105c565b60249060405190633250574960e11b82526004820152fd5b9091508681813d8311611196575b6111758183610dd4565b810103126103f457516001600160e01b0319811681036103f45790386110c7565b503d61116b56fea264697066735822122014b8382f9cfb364c8243de2a2e8feaa83280ecfa6dd063ca90602bfb9fa9d35764736f6c63430008140033",
  "linkReferences": {},
  "deployedLinkReferences": {}
}